:020000040800F2
:10000000204A0020250300080F2B0008C527000800
:100010000D2B0008350700082D34000800000000F3
:100020000000000000000000000000006502000861
:100030000D08000800000000C1020008192B00088C
:100040003F0300083F0300083F0300083F03000888
:100050003F0300083F0300083F0300083F03000878
:100060003F0300083F0300083F030008390700086A
:100070003F0300083F0300083F0300083F03000858
:10008000450700083F0300083F0300083F0300083E
:100090003F0300083F0300083F0300083F03000838
:1000A0003F0300083F0300083F0300083F03000828
:1000B0003F030008F52B00083F0300083F0300083A
:1000C0003F0300083F0300083F0300083F03000808
:1000D0003F03000809340008153400083F030008F6
:1000E0003F0300083F0300083F0300083F030008E8
:1000F0003F030008092C00083F0300083F030008E5
:100100003F0300083F0300083F0300083F030008C7
:100110003F030008E92E00083F0300083F030008E2
:10012000510700083F0300085D0700083F0300086F
:100130003F03000800000000000000003F0300082B
:100140003F0300083F0300083F0300083F03000887
:100150003F0300083F0300083F0300082134000864
:100160003F0300083F0300083F0300083F03000867
:100170003F0300083F0300083F03000800000000A1
:10018000000000003F030008000000000000000025
:100190003F03000800000000000000003F030008CB
:1001A0000000000000000000000000003F03000805
:1001B0003F0300083F0300083F0300083F03000817
:1001C0003F03000800F002F800F03CF80AA090E8B5
:1001D000000C82448344AAF10107DA4501D100F002
:1001E00031F8AFF2090EBAE80F0013F0010F18BF93
:1001F000FB1A43F0010318472C4300004C43000056
:10020000103A24BF78C878C1FAD8520724BF30C842
:1002100030C144BF04680C60704700000023002414
:1002200000250026103A28BF78C1FBD8520728BF06
:1002300030C148BF0B6070471FB504F00FF91FBDF8
:1002400010B510BD00F061F91146FFF7F5FF03F09E
:1002500033F900F07FF903B4FFF7F2FF03BC00F0BD
:1002600087F900002C4B19680868B0E8F04F80F35C
:100270000988BFF36F8F4FF0000080F3118870473B
:100280000000000008480068006880F308884FF00C
:10029000000080F3148862B661B6BFF34F8FBFF3DE
:1002A0006F8F00DF00BF00BF08ED00E0DFF80C003B
:1002B000016841F470010160704700BF88ED00E003
:1002C000EFF30980BFF36F8F134B1A681EF0100F06
:1002D00008BF20ED108A20E9F04F106009B44FF0FC
:1002E000500080F31188BFF34F8FBFF36F8F03F07F
:1002F00029FE4FF0000080F3118809BC19680868D6
:10030000B0E8F04F1EF0100F08BFB0EC108A80F379
:100310000988BFF36F8F704760000020EFF30580FE
:10032000704700000948804709480047FEE7FEE79C
:10033000FEE7FEE7FEE7FEE7FEE7FEE7FEE7FEE795
:1003400004480549054A064B70470000E52B0008A4
:10035000C501000820440020204A0020204600203B
:100360002046002053EA020C00F069802DE9F04B92
:100370004FF00006002B1FBFB3FA83F503FA05F414
:1003800024FA05F65E4012BF1643B2FA82F502FA6D
:1003900005F4C5F120051EBF22FA05FC44EA0C0451
:1003A000203556EA044C4FEA144418BF641C4FF041
:1003B00000084FF00009904271EB030C39D300297B
:1003C00019BFB1FA81F701FA07F6B0FA80F700FA1F
:1003D00007F6C7F120071EBF20FA07FC46EA0C0605
:1003E0002037B6FBF4FCA7EB0507103F07F01F0B07
:1003F000CBF120060CFA0BFB2CFA06F644BFB346F1
:100400000026202FA4BF5E464FF0000B5BEA060CCF
:1004100008BF4FF0010B19EB0B09ABFB027C48EB5B
:100420000608C01B06FB02CC0BFB03CC71EB0C01D6
:10043000C1E70B46024641464846BDE8F08B13B57E
:100440004FF000004FF00001AFF30080BDE81C400A
:10045000704710B5203AC0F00B80B1E81850203A30
:10046000A0E81850B1E81850A0E81850BFF4F5AF54
:100470005FEA027C24BFB1E81850A0E8185044BFDE
:1004800018C918C0BDE810405FEA827C24BF51F84B
:10049000043B40F8043B08BF7047D20728BF31F83F
:1004A000023B48BF11F8012B28BF20F8023B48BF90
:1004B00000F8012B70474FF0000200B51346944638
:1004C0009646203922BFA0E80C50A0E80C50B1F1AC
:1004D0002001BFF4F7AF090728BFA0E80C5048BFC0
:1004E0000CC05DF804EB890028BF40F8042B08BF5E
:1004F000704748BF20F8022B11F0804F18BF00F85A
:10050000012B7047704770477047754600F02CF814
:10051000AE4605006946534620F00700854618B0F0
:1005200020B5FFF70DFFBDE820404FF000064FF06B
:1005300000074FF000084FF0000B21F00701AC4618
:10054000ACE8C009ACE8C009ACE8C009ACE8C00937
:100550008D46704710B50446AFF300802046BDE8D5
:100560001040FFF778BE000000487047BC430020F1
:1005700001491820ABBEFEE726000200704710B507
:100580000146806B026C12F0500F05D0026CD2064F
:1005900026D500F0F3F910BD016C41F4007101643F
:1005A00001688A6812F0405F17D1027EAAB9CA6A50
:1005B00012F4700F02D08A6852050ED44A6822F0F5
:1005C00020024A60016C21F480710164016CC9044D
:1005D00003D4016C41F00101016400F0CDF910BDBC
:1005E000806BC26CBDE810400846104710B5806BA8
:1005F00040210164416C41F00401416400F0BEF906
:1006000010BD10B5806B00F0B8F910BD464910B5AB
:100610004A6822F440324A604A6843681A434A6092
:1006200001684A6822F480724A6001684A68036976
:1006300042EA03224A6001684A6822F040724A6036
:1006400001684A6883681A434A6001688A6822F42C
:1006500000628A6001688A68C3681A438A60816A96
:100660006FF07062D14201688A6822F070628A601D
:1006700001688A680CD0836A1A438A6001688A68B4
:1006800022F040528A6001688A68C36A1A4301E016
:1006900022F040528A6001688A6822F002028A6071
:1006A00001688A68037E42EA43028A6090F820105B
:1006B000002901684A680FD042F400624A6001686C
:1006C0004A6822F460424A6001684A68174C436AEB
:1006D00004EB43331A4301E022F400624A600168EC
:1006E000CA6A22F47002CA620168CA6A838B104C1B
:1006F00004EB03531A43CA6201688A6822F4007249
:100700008A6001688A6890F8303042EA43228A6041
:1007100001688A6822F480628A6001688A68406998
:1007200042EA8020886010BD0023014000E0FFFF06
:100730000000F0FFFEE70000014800F075BB00007C
:100740004C050020014800F06FBB00000C060020A3
:10075000014800F069BB000094030020014800F04C
:1007600063BB0000AC05002001681823CAB2103A30
:10077000B2FBF3F2054B6FF30901032A9B5CC365DF
:1007800000D9091D8165084670470000D84400085B
:1007900010B5014600208B698A6A4FF0C07453B1CE
:1007A000B3F5005F15D072B1012A0CD0022A0AD02D
:1007B000032A09D104E01AB1012A06D0022A03D182
:1007C000C96AC90100D5012010BDC96AA142FAD089
:1007D00010BD002AF7D0012AF2D0022AF3D0032A52
:1007E000F3D010BD30B50468256825F48025256058
:1007F000046863608368402B036803D099600068D5
:10080000C26030BD9A600068C16030BD704772B68A
:10081000FEE7000078B50024009490F83C20012AFF
:1008200019D0012280F83C200A6807230568092AAC
:1008300013D9EE680A3A02EB420293409E43EE60FF
:100840000B788A680A3B03EB43039A400368DD6830
:100850002A43DA6010E0022078BD2E6902EB4202E2
:1008600093409E432E610B788A6803EB43039A40C2
:1008700003681D692A431A614A681F23072A13D295
:1008800005686E6B521E02EB820293409E436E63BC
:100890000A8893B20A79521E02EB820293400268E0
:1008A000556B2B43536327E005680D2A12D22E6B3C
:1008B000D21F02EB820293409E432E630B790A887B
:1008C000DB1F92B203EB83039A4003681D6B2A433C
:1008D0001A6311E0EE6A0D3A02EB820293409E43E6
:1008E000EE620B790A880D3B92B203EB83039A40C8
:1008F0000368DD6A2A43DA621B4B0568194A9D4288
:100900000AD10D68122D07D1556825F400055560F0
:10091000556845F48005556005689D421DD1134D0D
:100920000B68AB4201D0112B17D1536823F480031D
:100930005360536843F4000353600968A9420CD123
:100940000B490C4A0968B1FBF2F101EB8101490046
:1009500000E0491E00910029FBD180F83C400020B6
:1009600078BD00000023014000200140120000106B
:100970005C00002040420F00704770477047006CD9
:1009800070470068C06C704770B504004FF00005F8
:1009900003D0206C002610B107E0012070BD204676
:1009A00000F01CF8666484F83C60206CC00610D42B
:1009B000206C20F4885040F0020020642046FFF7AD
:1009C00025FE6664206C20F0020040F001002064E7
:1009D00000E0012584F83C60284670BD70B586B003
:1009E000064614216846FFF766FD1D4930688842B7
:1009F00034D11C480025016841F480710160006811
:100A000000F48070059017481438016841F0040123
:100A100001600068694600F0040005901020009015
:100A20000320CDE90105104800F070FB104C0F4881
:100A3000C4E900050015A560C4E903508010656194
:100A4000C4E906504FF44030C4E90805204600F0E0
:100A5000BBFA08B1FFF7DBFEB463A66306B070BD56
:100A60000020014044380240000802401064024067
:100A7000940300202DE9F041044600680D4681688A
:100A80004FF0000749050BD58068C00508D5206CDC
:100A900040F02000206484F83C700120BDE8F08123
:100AA00000F028FC064613E0681C11D025B100F0C8
:100AB00021FC801BA8420BD920680068800707D45E
:100AC000206C40F00400206484F83C700320E5E7CB
:100AD000206800688007E7D521686FF01200086081
:100AE000206C40F4007020642068816811F0405F41
:100AF00013D1217E89B9C16A11F4700F02D08068C8
:100B000040050AD4206C20F480702064206CC0045E
:100B100003D4206C40F0010020640020BEE70000F8
:100B200018B50021009190F83C20012A07D001223D
:100B300080F83C2002689368DB0702D011E00220B5
:100B400018BD936843F0010393602E4A2E4B126840
:100B5000B2FBF3F202EB420200E0521E0092002AC6
:100B6000FBD102689368DB0742D0036C40F201645A
:100B7000A34343F48073036453685B0505D5036C9A
:100B800023F4005343F480530364036CDB0404D563
:100B9000436C23F00603436400E0416480F83C109A
:100BA0001A496FF02203136049680068CA061849A1
:100BB00006D0884224D1816811F0405F13D01FE035
:100BC0008842F8D0134A904203D1D1F80423D206C8
:100BD000F1D0114A904213D1D1F8041301F01F0152
:100BE0001029E8D30CE0816841F08041816007E082
:100BF000016C41F010010164416C41F0010141645C
:100C0000002018BD5C00002040420F00002301407E
:100C1000002001400021014000220140F8B50446B7
:100C200000200E46009094F83C10012907D00121C5
:100C300084F83C1021688B68DB0702D011E00220A9
:100C4000F8BD8B6843F001038B604049404B096855
:100C5000B1FBF3F101EB410100E0491E00910029D5
:100C6000FBD121688B68DB0503D58B6823F4807387
:100C70008B6021688B68DB075DD0236C40F20165D7
:100C8000AB4343F4807323644968490505D5216C5F
:100C900021F4005141F480512164216CC90404D530
:100CA000616C21F00601616400E0606484F83C003E
:100CB000A16B2948274DC863A16B28480864A16B24
:100CC0002748C86421686FF02200086020684168E6
:100CD00041F0806141602068816841F480718160E9
:100CE0002168134632464C31A06B00F0D7F9686892
:100CF0001C49C006206806D0884224D1816811F0C2
:100D0000405F13D01FE08842F8D0174A904203D1C9
:100D1000D1F80423D206F1D0144A904213D1D1F86D
:100D2000041301F01F011029E8D30CE0816841F0A1
:100D30008041816007E0206C40F010002064606C0E
:100D400040F0010060640020F8BD00005C0000205D
:100D500040420F00002301407F0500080306000801
:100D6000ED05000800200140002101400022014063
:100D70002DE9F0410446876D00F0BCFA064694F870
:100D800035000025022806D08020606584F83450A4
:100D90000120BDE8F0812068016821F016010160A2
:100DA0002068416921F080014161206C08B9A06C84
:100DB00020B12068016821F0080101602068016805
:100DC00021F0010101600CE000F094FA801B05287D
:100DD00007D920206065032084F8350084F834505A
:100DE000D7E720680068C007EED194F85C103F2078
:100DF0008840B860012084F8350084F83450002021
:100E0000C7E790F83510022903D080214165012001
:100E10007047052180F835100068016821F0010154
:100E200001600020704700002DE9F84304464FF0B0
:100E30000009CDF8009063484FF41651A56D006885
:100E4000B0FBF1F72E6894F85C10082000FA01F16D
:100E500031420FD021680A6852070BD50A6822F088
:100E600004020A6094F85C108840A860606D40F04D
:100E70000100606594F85C104FF0010808FA01F079
:100E8000304208D021684969090604D5A860606D20
:100E900040F00200606594F85C1004208840304205
:100EA00008D021680968890704D5A860606D40F002
:100EB0000400606594F85C1010208840304218D01F
:100EC00021680968090714D5A860206801684903EA
:100ED00004D50068000308D5A16C07E00168C905C6
:100EE00003D4016821F008010160216C09B120469A
:100EF000884794F85C1020208840304231D0216827
:100F00000968C9062DD5A86094F835000528206821
:100F1000016806D0490347D5006800031DD4616C01
:100F20001CE021F0160101602068416921F0800178
:100F30004161206C08B9A06C20B12068016821F0E3
:100F40000801016094F85C103F208840A86084F894
:100F5000358084F83490216D1FE0E16B09B12046A3
:100F60008847606D00282BD0606DC00714D0052025
:100F700084F835002068016821F0010101600098C3
:100F8000401C0090B84203D820680068C007F6D122
:100F900084F8358084F83490E16C002910D001B0D9
:100FA0002046BDE8F04308470168C905D5D401686B
:100FB00021F01001016084F8358084F83490CCE78A
:100FC000BDE8F8835C0000202DE9F041044600F004
:100FD00091F906465CB1022084F83500002584F8BA
:100FE00034502068016821F0010101600DE001200A
:100FF000BDE8F08100F07EF9801B052805D920208E
:101000006065032084F83500F2E720680068C007B7
:10101000F0D12268116820480140D4E90103184347
:10102000D4E903363343184363691843A36918436B
:10103000E3691843236A18430843616A042903D10A
:10104000D4E90B1319430843106020684069666AAD
:1010500020F0070130460E43012704280CD1A06A76
:101060000643E06A40B12046FFF792FB20B14020E2
:10107000606584F83570BAE7206846612046FFF75E
:1010800073FB94F85C203F2191408160656584F892
:1010900035700020ACE700003F8010F02DE9F041F2
:1010A0000446866D90F83400002501280DD00120FB
:1010B00084F8340094F835700020012F07D084F8AC
:1010C000340002252846BDE8F0810220FBE7022714
:1010D00084F8357060652046FFF784FB94F85C1057
:1010E0003F208840B0602068016841F0160101602F
:1010F000206C20B12068016841F00801016020687F
:10110000016841F001010160DCE700002DE9F84FC2
:10111000DFF8ACA10022012403254FF00F090AF1EA
:10112000040BAAF1040E00BF0B6804FA02F6334068
:10113000B3426ED10F7907F00307012F01D0022FC0
:1011400016D187684FEA420805FA08FC27EA0C071F
:10115000D1F80CC00CFA08FC4CEA070CC0F808C027
:101160004768B7430E79C6F3001696403E43466083
:101170000E79F643B6070AD0C6684FEA420C05FA64
:101180000CF7BE438F6807FA0CF73743C7600E7938
:1011900006F00306022E10D1D60800EB8608D8F818
:1011A000206057074FEAD76C09FA0CF7BE430F6966
:1011B00007FA0CF73743C8F8207006684FEA420C6C
:1011C00005FA0CF7BE430F7907F0030707FA0CF78F
:1011D000374307604E6816F4403F6BD0394E37688E
:1011E00047F480473760366822F0030706F48046EC
:1011F0000096354E07EB060CDCF8086897074FEAB7
:10120000177809FA08F7BE43304FB84202D10027D9
:101210001FE04FE02E4FB84201D1012719E02D4FBA
:10122000B84201D1022714E02B4FB84201D1032765
:101230000FE02A4FB84201D104270AE0284FB842F4
:1012400001D1052705E0274FB84201D1062700E06C
:10125000072707FA08F73743CCF80878DAF8006070
:101260005746D1F804C09E435FEACC2C00D51E43FC
:101270003E60DBF800605F46D1F804C09E435FEA41
:101280008C2C00D51E433E60DEF800607746D1F816
:1012900004C09E435FEA8C3C00D51E433E60084F6D
:1012A000083F3E68D1F804C09E435FEACC3C00D5BD
:1012B0001E433E60521C102AFFF436AFBDE8F88F83
:1012C000083C014044380240003001400000024028
:1012D0000004024000080240000C024000100240DE
:1012E00000140240001802400AB1816170470904ED
:1012F000FBE70000014880687047000050000020B4
:1013000002488168027811448160704750000020D3
:101310000B4810B5016841F400710160016841F4A7
:1013200080610160016841F480710160032000F078
:101330009FF80F2000F006F800F050F8002010BDD4
:10134000003C024030B505461F4887B000240168C4
:1013500041F480710160006806A900F4807000907B
:1013600001A800F069F90498A8B100F085F94000DF
:101370001649174AB0FBF1F11648491E026040F2C7
:10138000E732C0E90324C0E90114846100F0F6FBF0
:10139000040003D015E000F06FF9E9E70D4800F014
:1013A00039FC04000DD12D2000F034F8102D07D2A7
:1013B000002229462D2000F03BF80748056000E098
:1013C000012407B0204630BD4038024040420F00A3
:1013D000002000406C060020540000200C4882B021
:1013E000016841F480410160006800F48040009091
:1013F0000748001F016841F0805101600068002229
:1014000000F0805000900F21901E02B000F010B844
:1014100044380240002809DB00F01F0201219140FE
:101420004009800000F1E020C0F800117047000082
:10143000F0B40E4B1B680C46C3F30223C3F107053F
:10144000042D00D90425191D072901D2002300E02D
:10145000DB1E012606FA05F1491E214099409E40F7
:10146000761E16403143F0BC02F016B80CED00E0D9
:10147000064900F0070208684FF6FF03184040EAEB
:101480000220034A10430860704700000CED00E0A2
:101490000000FA052DE9F8431748016841F0805132
:1014A00001600068154F00F08050012600903E64F6
:1014B000FFF720FF05464FF47A78114C05E000BF96
:1014C000FFF718FF401B40450DD86068C003F7D5F3
:1014D0007E64FFF70FFF0546464607E0FFF70AFF69
:1014E000401BB04202D90320BDE8F8836068800346
:1014F000F4D50020F8E700004038024000000E421A
:10150000007000402DE9F0470E46050065D0DFF879
:101510001481D8F80000F7B200F00F00B04207D2F3
:1015200088F80070D8F8000000F00F00B04254D1E5
:1015300028683D4C810712D5400703D5206840F448
:10154000E05020602878000703D5206840F4604010
:1015500020602068A96820F0F00008432060287807
:10156000C0072DD0304968680839012812D00228F8
:1015700013D0032811D00968890700292DDA2168C2
:1015800021F0030101432160FFF7B4FE814641F2DF
:10159000883A0EE009688903EFE709688901ECE7FA
:1015A000FFF7A8FEA0EB0901514502D90320BDE8D1
:1015B000F0872068696800F00C00B0EB810FEFD174
:1015C000D8F80010404601F00F01B14207D907706A
:1015D000006800F00F00B04201D00120E7E7287852
:1015E000400705D52068E96820F4E05008432060F2
:1015F0002878000706D52068296920F4604040EA71
:10160000C100206000F058F82168084AC1F30311B6
:10161000515CC8400649086006480068FFF792FE22
:101620000020C4E7003C024008380240E0440008C3
:101630005C000020540000200F2202600C4A136856
:1016400003F003034360136803F0F003836013683F
:1016500003F4E053C36012684FF4E05303EAD2028C
:1016600002610448006800F00F0008607047000045
:1016700008380240003C02400448054900680968F7
:10168000044AC1F38221515CC84070475C000020CD
:1016900008380240F0440008044805490068096819
:1016A000044AC1F34231515CC84070475C000020DD
:1016B00008380240F0440008224810B5006810F0D5
:1016C0000C02214815D02149042A11D01D4C241F99
:1016D000082A0FD00C2A0CD12268236802F03F029E
:1016E0005B0221D52068C0F38810A0FB010120E037
:1016F000084610BD2268236802F03F025B0205D550
:101700002068C0F38810A0FB010104E02168C1F348
:101710008811A1FB00010023FEF724FE2168C1F31C
:101720000141491C49000AE02168C1F38811A1FB6D
:1017300000010023FEF716FE2168C1F30271B0FB21
:10174000F1F010BD083802400024F40040787D011B
:101750002DE9F84F04007DD0DFF878B32078ABF1A5
:101760000407C007A7F1040550D0DBF80010584665
:10177000C1F3810101290FD00168C1F38101022960
:1017800002D13968490207D40068C0F381000328F8
:1017900009D13868400206D52868800336D56068CC
:1017A0000028D8D032E06068B0F5803F10D0B0F5A6
:1017B000A02F286810D020F480302860286820F4FA
:1017C000802028606068A0B1FFF794FD06460CE019
:1017D000286840F48030F4E740F480202860F7E780
:1017E000FFF788FD801B642876D828688003F7D52A
:1017F0000CE0FFF77FFD064605E000BFFFF77AFD2E
:10180000801B6428F0D828688003F7D42078DFF89C
:10181000C89280074FF0000A44D5DBF80010584604
:1018200011F00C0F0FD00168C1F38101022902D120
:101830003968490207D50068C0F3810003280AD13E
:101840003868400207D42868800715D5E068012869
:1018500000D111E03AE1E068B0B10120C9F8000020
:10186000FFF748FD064604E0FFF744FD801B022811
:10187000BAD828688007F7D52868216920F0F800D1
:1018800040EAC10028600DE0C9F800A0FFF732FD72
:10189000064604E0FFF72EFD801B02281CD82868AE
:1018A0008007F7D42078000727D5DFF828828B48F7
:1018B000616908F16C0881B101210160FFF71AFD2F
:1018C000064604E0FFF716FD801B022804D8D8F86E
:1018D00000008007F6D510E089E0C0F800A0FFF70F
:1018E00009FD064605E000BFFFF704FD801B022846
:1018F0007DD8D8F800008007F6D42078400769D555
:1019000074484FF0000838300068C0000BD47148AC
:101910003830016841F08051016000684FF00108E3
:1019200000F0805000906E4E3068C00511D43068D1
:1019300040F480703060FFF7DDFC009006E000BFEF
:10194000FFF7D8FC0099401A022850D83068C0052B
:10195000F6D5604EA068683601280FD0052830689B
:1019600010D020F001003060306820F004003060BA
:10197000A068B8B1FFF7BEFC00900FE0306840F0FF
:101980000100F4E740F004003060F7E7FFF7B2FC35
:101990000099411A41F28830814264D8306880074A
:1019A000F4D50EE0FFF7A6FC009007E0FFF7A2FCDD
:1019B0000099411A41F28830814254D8306880073A
:1019C000F4D4B8F1000F05D042483830016821F056
:1019D00080510160A069A8B3DBF80010C1F3810158
:1019E000022947D00228C9F860A005D000E03AE0FB
:1019F000FFF780FC044639E0FFF77CFC064604E074
:101A0000FFF778FC801B02282DD828688001F7D4C6
:101A1000F4E907010843E168324A490802EB014151
:101A2000A26841EA82110843217C40EA0160217DDD
:101A300040EA017038600120C9F86000FFF75AFCE5
:101A4000044606E044E000BFFFF754FC001B0228F8
:101A500009D828688001F7D53AE000BFFFF74AFCB3
:101A6000001B022802D90320BDE8F88F28688001F6
:101A7000F4D42DE00128F7D03868E26900F4800141
:101A8000914223D1226A00F03F0191421ED147F6D4
:101A9000C071626A0140B1EB821F17D1A26A4FF098
:101AA000FF3300F4403103EB5202B1EB024F0DD192
:101AB00094F82C2000F07061B1EB026F06D194F81D
:101AC000301000F0E040B0EB017F01D00120CBE707
:101AD0000020C9E70838024000004742800E474214
:101AE000007000400000FFFF7047704770B590F82D
:101AF0003C20012A32D0012480F83C40022280F8A8
:101B00003D2003685A689D6822F070060A683243D7
:101B10005A60134B02689A4214D0B2F1804F11D030
:101B2000104B9A420ED0104B9A420BD00F4B9A4258
:101B300008D00F4B9A4205D00E4B9A4202D00E4B62
:101B40009A4204D1496825F080031943916080F8D6
:101B50003D40002180F83C10084670BD022070BD59
:101B6000000001400004004000080040000C00405C
:101B700000040140004001400018004010B504007E
:101B800003D094F83D0010B107E0012010BD002003
:101B900084F83C00204600F01FF8022084F83D0045
:101BA000211D206801F036F8012084F8460084F8F1
:101BB0003E0084F83F0084F8400084F8410084F837
:101BC000420084F8430084F8440084F8450084F817
:101BD0003D00002010BD000008B500680B49884298
:101BE00012D10B48016841F0020101600068002237
:101BF00000F00200009006211D20FFF719FCBDE84F
:101C000008401D20FFF706BC08BD0000000400408E
:101C10004038024090F83D10012901D00120704762
:101C2000022180F83D100168CA6842F00102CA60D2
:101C300000681149884214D0B0F1804F11D00F498B
:101C400088420ED00E4988420BD00E49884208D0F7
:101C50000D49884205D00D49884202D00C4988427E
:101C600004D1816801F00701062903D0016841F021
:101C700001010160002070470000014000040040A5
:101C800000080040000C00400004014000400140FA
:101C90000018004070B5044690F83C00002501286B
:101CA00017D0012684F83C60022084F83D002068AB
:101CB000826822F0770222F47F428260086850280E
:101CC00038D00DDC20284FD005DC90B3102811D17E
:101CD0004AE0022070BD302846D040280AD13BE0BF
:101CE00060282FD070280DD0B0F5805F03D0B0F5FC
:101CF000005F12D0012584F83D60002084F83C008C
:101D0000284670BDCB68D1E90121206800F0F3FFBF
:101D10002068816841F0770109E0CB68D1E90121B1
:101D2000206800F0E8FF2068816841F4804181600C
:101D3000E1E719E0CA684968206801F0B1F850216C
:101D4000206806E0CA684968206801F0BAF8602196
:101D5000206800F0DAFFCEE7CA684968206801F021
:101D60009FF840212068F4E7226801461046F0E71A
:101D7000704770B50446006801694FF00005C9431B
:101D8000890715D4C168C943890711D4E91E0161C7
:101D900001202077206880698007204602D0FFF765
:101DA000E7FF04E000F0C0F8204600F052F9257784
:101DB00020680169C943490717D4C168C943490765
:101DC00013D46FF00401016102202077206880693C
:101DD00010F4407F204602D0FFF7CAFF04E000F075
:101DE000A3F8204600F035F9257720680169C9433A
:101DF000090716D4C168C943090712D46FF0080156
:101E00000161042020772068C0698007204602D045
:101E1000FFF7AEFF04E000F087F8204600F019F964
:101E2000257720680169C943C90617D4C168C94329
:101E3000C90613D46FF010010161082020772068D3
:101E4000C06910F4407F204602D0FFF791FF04E004
:101E500000F06AF8204600F0FCF825772068016958
:101E6000C943C90708D1C168C943C90704D1891E3C
:101E70000161204600F052F920680169C943090652
:101E800009D4C168C943090605D46FF08001016116
:101E90002046FFF729FE20680169C943490609D495
:101EA000C168C943490605D46FF04001016120466D
:101EB00000F03EF920680169C94389060BD4C16866
:101EC000C943890607D46FF0200101612046BDE8AF
:101ED0007040FFF70ABE70BD10B586B004461421ED
:101EE0006846FEF7E8FA0D492068884213D10C488D
:101EF0000021026842F002020260006800F0020065
:101F0000059002200090CDE90101CDE9031069465A
:101F10000448FFF7FBF806B010BD000000040040C5
:101F20003038024000040240704770B5044690F813
:101F30003C0000260D4601280FD0012084F83C000B
:101F40006AB1042A1DD0082A2FD00C2A3FD00126BE
:101F5000002084F83C00304670BD022070BD20682F
:101F600000F0DCFE2068816941F008018161206891
:101F7000816921F004018161206881692A69114326
:101F800011E0206800F0FAFE2068816941F40061E8
:101F900081612068816921F48061816120688169A3
:101FA0002A6941EA02218161D2E7206800F01CFF22
:101FB0002068C16941F00801C1612068C16921F050
:101FC0000401C1612068C1692A69114311E02068D8
:101FD00000F03EFF2068C16941F40061C1612068E2
:101FE000C16921F48061C1612068C1692A6941EA3F
:101FF0000221C161ACE710B5040003D094F83D00A4
:1020000010B107E0012010BD002084F83C002046FC
:1020100000F01EF8022084F83D00211D206800F029
:10202000F9FD012084F8460084F83E0084F83F0062
:1020300084F8400084F8410084F8420084F84300AA
:1020400084F8440084F8450084F83D00002010BD69
:102050007047704710B50446022249B104290ED0DA
:10206000082913D094F84100012816D0012010BD92
:1020700094F83E000128F9D184F83E200FE094F84E
:102080003F000128F2D184F83F2008E094F8400096
:102090000128EBD184F8402001E084F8412001229E
:1020A000206800F01BFE16492068164A884201D0BD
:1020B000904203D1436C43F4004343642068884258
:1020C00013D0B0F1804F10D00F4988420DD00F4986
:1020D00088420AD00E49884207D0904205D00D4967
:1020E000884202D00C49884204D1816801F007017E
:1020F000062903D0016841F001010160002010BDF4
:1021000000000140000401400004004000080040BD
:10211000000C0040004001400018004000680349E6
:10212000884201D1FFF7ECB8704700000020004062
:102130007047704770470000F8B5016804460868AA
:10214000CA684B6910F00F0F4FF0000559D003F02B
:10215000010602F49077374365D0C10705D0D10559
:1021600003D5216C41F001012164410705D5D90750
:1021700003D0216C41F002012164810705D5D90704
:1021800003D0216C41F004012164010707D502F05E
:102190002001314303D0216C41F008012164216CFE
:1021A00000293AD0800604D5900602D5204600F0DA
:1021B00051FF20684069216CC0F38010090700D4EA
:1021C00060B3204600F011FF20684069400621D529
:1021D0002068143050E8001F21F0400140E8001250
:1021E000002AF5D1A06BA8B16C490165A06BFEF780
:1021F00008FE002811D0A06B016D01B0BDE8F040D1
:10220000084783060FD593060DD52046BDE8F84054
:1022100000F020BF2046FFF78DFFF8BD2046FFF7F6
:1022200089FF2564F8BD266B2023012E79D1C606CF
:1022300077D5D60675D50868486800904869400685
:1022400040D5A16B086840680004000CEAD0A28D5C
:102250008242E7D9E085C869B0F5807F2DD020683B
:102260000C3050E8001F21F4807140E80012002A71
:10227000F5D12068143050E8001F21F0010140E83A
:102280000012002AF5D12068143050E8001F21F018
:10229000400140E80012002AF5D184F83E30256361
:1022A00020680C3050E8001F21F0100140E80012B7
:1022B000002AF5D1A06BFEF75BFDA08DE18D401AE1
:1022C00081B229E0A08DE18D401A81B2E08D002815
:1022D000A8D00029A6D020680C3050E8002F22F4A6
:1022E000907240E80026002EF5D12068143050E8A6
:1022F000002F22F0010240E80026002EF5D184F8DC
:102300003E30256320680C3050E8002F22F0100288
:1023100040E80023002BF5D12046FFF70AFFF8BD67
:10232000FFE705062BD5150629D594F83D00212891
:10233000F5D1A068B0F5805F01D12069B0B1206A05
:10234000411C2162216800784860E08C401E000436
:10235000000CE084E3D12068C16821F08001C160F5
:102360002068C16841F04001C160D8E7206A008858
:10237000C0F308004860206A801C2062E5E7400640
:10238000CDD55006CBD5CA68204622F04002CA609F
:1023900084F83D3000F015FAC1E70000F52E000882
:1023A00070B5040004D094F83D00002510B106E09B
:1023B000012070BD84F83C50204600F023F8242012
:1023C00084F83D002068C16821F40051C1602046B6
:1023D00000F0A0FE2068016921F4904101612068AD
:1023E000416921F02A0141612068C16841F400512E
:1023F000C1602564202084F83D0084F83E00002060
:1024000070BD00002DE9F04F87B0054614216846E5
:10241000FEF751F88F488F49DFF834821038D5F82D
:1024200000C00024022203234E0507154FF0080EBA
:102430004FF480794FF4403AC44553D1D1F800C0ED
:102440004CF4801CC1F800C0096801F480110591AA
:10245000016841F004010160016801F00401059187
:10246000016841F00801016000689B4600F0080027
:102470000590D002009001AA0220CDF810E082E879
:102480001108F04669467448FEF740FE04200090AB
:1024900001AA0220CDF8108082E8110869466F4831
:1024A000FEF734FEDFF8BC816D49404602C0E0E82B
:1024B0000264E0E8034740F8044C80E81006404618
:1024C000C8F82440FEF780FD08B1FEF7A0F9C5F872
:1024D0003880002206213520C8F83850FEF7A8FFC2
:1024E000352046E0DFF88081DFF868B1C4450BF1A4
:1024F000040B43D1DBF800C04CF0100CCBF800C04B
:10250000DBF8001001F010010591016841F00101B4
:1025100001600068694600F0010005904FF4C0605A
:102520008DE815000720CDE903305048FEF7EEFD99
:10253000DFF830814E4908F16008404602C0E0E80B
:102540000264E0E8034740F8044C80E81006404687
:10255000C8F82440FEF738FD08B1FEF758F9C5F871
:102560003880002206212520C8F83850FEF760FF89
:102570002520FEF74FFF07B0BDE8F08FDFF8F480AD
:10258000C4453ED1D1F800C04CF4003CC1F800C0B5
:10259000096801F400310591016841F00101016011
:1025A0000068694600F0010005900C208DE81500D8
:1025B0000720CDE903302D48FEF7A8FDDFF8A48001
:1025C000274908F1C0084046783102C0E0E80264BB
:1025D000E0E8034740F8044C80E810064046C8F89D
:1025E0002440FEF7F1FC08B1FEF711F9C5F8388078
:1025F000002206212620C8F83850FEF719FF2620B1
:10260000B7E71D498C45B6D1DBF8005045F02005F1
:10261000CBF80050DBF8001001F0200105910168B3
:1026200041F0040101600068694600F00400059073
:10263000C0208DE81500CDE9033E0748FEF766FD92
:10264000002207214720FEF7F3FE472091E7000014
:10265000005000404038024000080240000C024098
:10266000106002404C0500200010014000000240B4
:1026700040640240004400400014014090F83E30A5
:10268000202B0ED159B152B190F83C30012B08D01B
:10269000012380F83C300023036300F0C1BD01201A
:1026A000704702207047000010B5044600680F49CB
:1026B00088420ED10E480F4A0121017011700E4A56
:1026C000117041780322491C41700C490C48FFF7F6
:1026D000D5FF0C492068884207D109480422BDE88B
:1026E000104009498838FFF7C9BF10BD00440040B9
:1026F0004C000020C8000020E30000200000002063
:10270000C404002000500040080000207047000072
:102710002DE9F843044690F83D001F4616460D4645
:1027200020284CD1C5B1BEB194F83C00012846D058
:10273000012084F83C004FF00008C4F840802120BC
:1027400084F83D00FEF7D6FDA6848146E684A068A5
:10275000B0F5805F03D004E00120BDE8F883206974
:1027600028B12E465FF0000584F83C800EE000267C
:10277000FAE78021204600F09DFDA0B9AEB116F821
:10278000010B21684860E08C401EE084E08C4B46E1
:102790004FF0000200970028EBD14FF04001204697
:1027A00000F088FD30B10320D7E735F8020BC0F305
:1027B0000800E6E7202084F83D000020CDE7022055
:1027C000CBE77047FEE700001FB5002116480091D7
:1027D00001910291134A0391026001244FF4803267
:1027E0000461C0E90121047680F820100F4AC0E995
:1027F0000A21C461C16080F830404461FEF7C4F82A
:1028000008B1FEF704F80E20CDE90004072002907D
:1028100069460548FDF7FEFF002801D0FDF7F7FFE8
:102820001FBD0000002001404C0300200100000FEC
:10283000194808B5016841F400110160016801F40C
:1028400000110091016841F48001016000680022DC
:1028500000F48000009005210B20FEF7E9FD0B201D
:10286000FEF7D8FD002205211020FEF7E1FD102023
:10287000FEF7D0FD002205213820FEF7D9FD3820D3
:10288000FEF7C8FD002205213A20FEF7D1FDBDE884
:1028900008403A20FEF7BEBD3038024010B59CB06B
:1028A0001C2216496846FDF7D4FD0021684600F059
:1028B000CBFE134C11491C2260621C3107A8FDF7A6
:1028C000C8FD002107A800F0BFFE0C49A0621C2231
:1028D00038310EA8FDF7BDFD00210EA800F0B4FEB2
:1028E0000649E0621C22543115A8FDF7B2FD002113
:1028F00015A800F0A9FE20631CB010BD68440008B4
:102900000C00002070B586B014216846FDF7D3FD99
:102910001E480024016841F080010160016801F057
:1029200080010591016841F001010160016801F039
:1029300001010591016841F004010160016801F0A5
:1029400004010591016841F002010160016801F094
:1029500002010591016841F00801016000680C4E18
:1029600000F008004FF489550590002229463046B2
:10297000FEF7BAFC01200095CDE901046946304616
:102980000394FEF7C3FB06B070BD00003038024070
:102990000004024010B58EB00024079408940994F6
:1029A0000A940B941C2168460C94FDF784FD1E4884
:1029B0001C490160B321C0E901143121C0E90314AD
:1029C00080218161FFF7DAF808B1FDF720FF4FF4AD
:1029D0008050079007A91448FFF75CF908B1FDF78C
:1029E00016FF1148FFF707FB08B1FDF710FF0B9426
:1029F0000BA90D480C94FFF779F808B1FDF707FF14
:102A00006020CDE9000402940C2269460648049433
:102A1000FFF78BFA08B1FDF7FAFE0348FFF75CFAFF
:102A20000EB010BD00040040F40300200C4810B5A7
:102A30000A4901604FF4E1314160002181600C22BC
:102A4000C160C0E904128161C161FFF7A9FC0028DF
:102A500003D0BDE81040FDF7DABE10BD00500040C5
:102A60003C0400200C4810B50A4901604FF4E131E4
:102A70004160002181600C22C160C0E904128161C3
:102A8000C161FFF78DFC002803D0BDE81040FDF7C1
:102A9000BEBE10BD00100140800400200C4810B5DF
:102AA0000A4901604FF4E1314160002181600C224C
:102AB000C160C0E904128161C161FFF771FC0028A7
:102AC00003D0BDE81040FDF7A2BE10BD0044004099
:102AD000C40400200C4810B50A4901604FF4E131EC
:102AE0004160002181600C22C160C0E90412816153
:102AF000C161FFF755FC002803D0BDE81040FDF789
:102B000086BE10BD0014014008050020FEE7FEE768
:102B1000022000F08DFDFBE710B5502080F31188F6
:102B2000BFF34F8FBFF36F8F01F0D0FB18B1044993
:102B30004FF080500860002080F3118810BD000025
:102B400004ED00E070B594B034216846FDF7B3FCA5
:102B500014210DA8FDF7AFFC20480025016841F0C5
:102B600080510160006800F0805012901C4801689C
:102B700041F4404101600068022400F4404012909A
:102B800001200090000401908001CDE906400F264D
:102B90000896D820CDE909040520CDE90B04684644
:102BA000FEF7D6FD08B172B6FEE7FEF773FC08B17A
:102BB00072B6FEE74FF4A050CDE90F504FF48050AD
:102BC0001190CDE90D6405210DA8FEF79BFC0028AE
:102BD00001D072B6FEE714B070BD0000403802406C
:102BE000007000400248016841F4700101607047C4
:102BF00088ED00E003496FF00100096808610148B1
:102C0000FFF7B7B8F40300200148FFF7B2B800009F
:102C10006C060020F0B50268254C264D264E274F45
:102C2000274B4FF0804CA04209D0604507D0A84206
:102C300005D0B04203D0B84201D0984204D122F06E
:102C4000700E4A6842EA0E02A0421BD0604519D0BD
:102C5000A84217D0B04215D0B84213D0984211D034
:102C6000184DA8420ED0184DA8420BD0174DA842BF
:102C700008D0174DA84205D0164DA84202D0164DD7
:102C8000A84203D122F44075CA682A434D6922F054
:102C900080022A4302608A68C2620A688262A04295
:102CA00001D0984201D10969016301214161F0BD60
:102CB000000001400004004000080040000C0040FB
:102CC0000004014000400140004401400048014030
:102CD00000180040001C00400020004010B501F02A
:102CE0001F030121046A99408C430462016A9A40DF
:102CF0001143016210BD10B5846842EA032224F436
:102D00007F440A432243826010BD826822F0700231
:102D10000A4342F00701816070470000F0B5026A83
:102D200022F001020262036A42688469124E24F0B2
:102D300073050C682C4323F002058B682B430D4D63
:102D4000A84201D0B04205D123F00807CB683B432D
:102D500023F00403A84201D0B04205D14D6922F40A
:102D6000407215438A692A4342608461496841631D
:102D70000362F0BD0000014000040140F0B5026AAA
:102D800022F010020262026A436884690D6824F42A
:102D9000E64444EA05248D6822F0200242EA051246
:102DA0000F4D104EA84201D0B04206D1CF6822F09C
:102DB000800242EA071222F04002A84201D0B0424B
:102DC00007D14D6923F4406343EA85038D6943EAE3
:102DD000850343608461496881630262F0BD00003D
:102DE0000000014000040140F0B5026A22F4807244
:102DF0000262026A4368C46922F4007224F0730517
:102E00000C68124E2C438D6842EA05220E4DA842F2
:102E100001D0B04206D1CF6822F4006242EA072214
:102E200022F48062A84201D0B04207D14D6923F458
:102E3000405343EA05138D6943EA05134360C461B7
:102E40004968C1630262F0BD000001400004014016
:102E500030B5026A22F480520262046A4268C36991
:102E60000D6823F4E64343EA05238D6824F40054F7
:102E700044EA0534084DA84202D0084DA84204D1C6
:102E80004D6922F4804242EA85124260C36149687A
:102E90000164046230BD00000000014000040140F4
:102EA00010B5036A046A24F001040462846924F002
:102EB000F00444EA021423F00A020A438461026225
:102EC00010BD10B5036A23F0100303628369046A1E
:102ED00023F4704343EA023224F0A00343EA0111D1
:102EE0008261016210BD00000148FFF725B90000B2
:102EF0003C04002010B5806B0021C185C184FFF720
:102F000019F910BD70B5846B2068406994F83D10C4
:102F1000C0F3C0100025212904D118B1E584204652
:102F200000F08AF82068406994F83E10C0F38010E1
:102F3000222904D118B1E585204600F056F8206C0E
:102F400040F0100020642046FFF7F4F870BD10B583
:102F50000146806B09680968C9052FD40021C18525
:102F600001680C3151E8002F22F4807241E80023FF
:102F7000002BF5D10168143151E8002F22F0010235
:102F800041E80023002BF5D10168143151E8002FEE
:102F900022F0400241E80023002BF5D1202180F8E7
:102FA0003E10016B012909D101680C3151E8002F55
:102FB00022F0100241E80023002BF5D1016B01291A
:102FC00002D0FFF771FB10BD818DFFF7B2F810BD85
:102FD00010B5806B016B012902D0FFF797FB10BD84
:102FE000818D4908FFF7A5F810BD01680C3151E843
:102FF000002F22F4907241E80023002BF5D10168E4
:10300000143151E8002F22F0010241E80023002B87
:10301000F5D1016B012909D101680C3151E8002F6C
:1030200022F0100241E80023002BF5D1202180F886
:103030003E1000210163704701680C3151E8002FF8
:1030400022F0C00241E80023002BF5D1202180F8B6
:103050003D10704708B590F83E10222901D002209B
:1030600008BD82684FF480539A4201D1016921B1B1
:10307000816A9A421BD04AB10AE00268816A5268AA
:10308000C2F308020A80816A891C08E0026972B1F1
:103090000268526802F07F020A70816A491C8162EC
:1030A000C18D491E0904090CC18503D019E00268CD
:1030B0005268F1E70168CA6822F02002CA6001681C
:1030C000CA6822F48072CA6001684A6922F001026B
:1030D0004A61202180F83E10016B012903D0FFF7DF
:1030E000E3FA002008BD0021016301680C3151E8BA
:1030F000002F22F0100241E80023002BF5D10168D7
:103100000A68D20602D50A6849680091818DFFF7E6
:1031100010F8E6E770B5044600680169E26821F43A
:103120004051114301612169A068E2690843616966
:10313000114308432168CA6849F20C639A43024369
:10314000CA6020684169A26921F44071114341615C
:1031500031492068884202D03049884202D1FEF7C6
:103160009BFA01E0FEF788FAE26900231921642541
:103170003226B2F5004F626828D0A0FB0101930F00
:103180009200FDF7EFF80146B0FBF5F06FF0180282
:10319000504301EB800006EB0010B0FBF5F000F0AF
:1031A000F002B1FBF5F002EB0012B1FBF5F06FF0AD
:1031B0001803584301EB800006EB0010B0FBF5F05C
:1031C00000F00F0021681044886070BDA0FB010171
:1031D00092185B41FDF7C6F80146B0FBF5F002011D
:1031E000B1FBF5F06FF01803584301EB800006EBDC
:1031F000C000B0FBF5F000F0F80002EB4002B1FBBC
:10320000F5F0584301EB800006EBC000B0FBF5F091
:1032100000F00700D6E70000001001400014014054
:1032200038B5816282850025134604460564222054
:1032300084F83E00A26B1C48D063A26B1B4810644C
:10324000A26B1B48D064A06B0A4605652168A06B81
:10325000091DFDF723FF206801684068009084F88D
:103260003C50206948B120680C3050E8001F41F400
:10327000807140E80012002AF5D12068143050E82F
:10328000001F41F0010140E80012002AF5D120683A
:10329000143050E8001F41F0400140E80012002ABD
:1032A000F5D1002038BD00004F2F0008D12F0008B5
:1032B000052F00082DE9F041984617460E460446B2
:1032C000069D27E0681C25D02DB1FEF713F8A0EB72
:1032D0000800A8421ED920680C3050E8001F21F4D5
:1032E000D07140E80012002AF5D12068143050E86F
:1032F000001F21F0010140E80012002AF5D1202032
:1033000084F83D0084F83E00002084F83C0003204F
:10331000BDE8F0812068006836EA000004D0002093
:10332000B842CFD00020F3E70120F9E72DE9F05FA4
:103330002F4EDFF8C0A0002530782F4F2F4C4FF0D4
:10334000190B4FF00209012822D18046A4F8088009
:1033500020880022401C20804FF49670A0804FF4FB
:1033600080512748FDF7C0FF2089022804D1C102FF
:1033700001222348FDF7B8FF2088A188884221D880
:103380008AF80080B068401CB0603968C1F840B06D
:103390003078022814D1A4F8089020880122401C1B
:1033A00020804FF4A570A080C84611031448FDF793
:1033B0009BFF2088A18888420CD83968C1F840B0AA
:1033C000BDE8F09F38680564A5806580258086F893
:1033D0000090E0E738680564A5806580094825808D
:1033E000357005708AF800807068401C7060E7E7EF
:1033F000C800002014000020F4030020A443002093
:10340000000402400F0000200148FEF795BE0000B6
:10341000800400200148FEF78FBE0000C404002095
:103420000148FEF789BE000008050020FEE7000005
:10343000B2EE041AF0B420EE010ABDEEC00A10EE9E
:10344000104A002C00DA644220EE810AA6B2BDEEDA
:10345000C00A10EE105A002D00DA6D420C4C20709C
:10346000FB206070A170300AE0702671280E607138
:10347000280CA071280AE07125726272A3726B2079
:10348000E0722146F0BC10230C220248FFF740B93D
:10349000AE4300203C0400200907090E002804DB8D
:1034A00000F1E02080F80014704700F00F0000F1F8
:1034B000E02080F8141D7047FDF72AFFFFF742FB5C
:1034C000FFF720FAFFF7B4F9FFF7CCFAFFF7E6FAB7
:1034D000FFF7ACFAFFF75EFAFFF7FCFAFFF774F9B3
:1034E000032218491848FFF7C9F816490422083181
:1034F0001648FFF7C3F80C211548FEF7ABFD11493C
:103500000122091D1348FDF789FB134C0122110309
:103510002046FDF7E9FE0022A1152046FDF7E4FE56
:10352000002220212046FDF7DFFE00F039FD00F0EB
:1035300059FD0A49012048700870FFF7AFF900F003
:103540007EF8FEE700000020C40400203C040020B8
:10355000F40300204C03002000040240DC000020A3
:1035600001460020842900D0C81C70470025DFF8E0
:10357000B8802E4C40F68C270126A07801280DD16A
:10358000A088401C80B2A080E188884206D1606992
:10359000401C6061E670A580A57002E0E07801281B
:1035A00004D1A069401CA061FFF7C0FE607801282B
:1035B0000DD198F8010098F80010421A022A0ED096
:1035C0004FF4FA72E28000F0C5FAA67065702078B8
:1035D000012807D0022813D003281ED01FE04FF483
:1035E0004872EFE7606B401C606300F0FDF9606BB0
:1035F00090FBF7F107FB110088B9032020700EE063
:10360000A06B401CA06300F0FFF9A06B90FBF7F1EA
:1036100007FB110018B9267001E000F007FA02203C
:1036200000F006F8A9E70000DC0000200C000020F4
:1036300010B500B9012000F021FC002010BD10B52C
:1036400000F042FC002010BD7FB50D4604464169E4
:10365000B0F9080081B1A16971B1FFF781FFD4E928
:1036600005128DE80700D4E900102B46226900F00E
:1036700002FE039004B070BDFFF772FF03A9CDE90D
:103680000001208A2B4682B2D4E9001000F0C6FD6A
:10369000012801D00020EDE70398EBE72DE9F04188
:1036A000184C0F460546E6682068001D00F01EFB1A
:1036B00038B9206890F82C10012088402169814396
:1036C0002161681C07D137B12168BDE8F0410E487F
:1036D000091D00F04FBB20683544B54245602168A4
:1036E00005D2A06BBDE8F041091D00F02BBB606B5B
:1036F000091D00F027FBA06A854200D2A562BDE843
:10370000F081000060000020900700202DE9F041CA
:10371000054600F03BFB2E4CA068401CA0602068D2
:103720002C4F10B1606940B32DE02560A0680128DE
:1037300029D1002606EB860007EB800000F0F4FAA2
:10374000761C072EF6D323488C3000F0EDFA214882
:10375000A03000F0E9FA1F48B43000F0E5FA1D4847
:10376000C83000F0E1FA1B48DC3000F0DDFA1948FF
:103770008C3060631430A06305E02068E96AC06A99
:10378000884200D82560606A401C6062E96A0120B6
:10379000226988401043206101EB810007EB800023
:1037A000291D00F0E7FA00F011FB606900280CD039
:1037B0002068E96AC06A884207D207494FF0805002
:1037C0000860BFF34F8FBFF36F8FBDE8F08100003B
:1037D00060000020B406002004ED00E010B50446AF
:1037E00090F8510058B101280CD002280FD0502079
:1037F00080F31188BFF34F8FBFF36F8FFEE7206B0D
:1038000000F0F8FA2046BDE8104000F0F3BA10BD11
:1038100010484FF47051420706D0C01D0D4920F0EA
:103820000700411AC1F570510B4A00230144C2E957
:1038300000030839183A21F0070111604B600B6052
:103840000B1AC0E9001393604FF0004053605061C1
:1038500070470000A4070020B4000020144E154C4F
:10386000A6F1C8074FF08058DFF84C9012E000BF77
:1038700000F08CFAF068C568281D00F037FAA068DF
:10388000401EA0606068401E606000F09FFA2846FD
:10389000FFF7A4FF60680028EAD138680128F9D949
:1038A000C9F80080BFF34F8FBFF36F8FF2E70000BE
:1038B0007C0700206000002004ED00E02DE9F047C7
:1038C0009A46DDE9098481466FF00303206B03EB20
:1038D00082021044089E20F00707780707D0502086
:1038E00080F31188BFF34F8FBFF36F8FFEE7002582
:1038F00061B1002023180A5C83F834200A5C12B1FD
:10390000401C1028F6D384F8435001E084F834506A
:10391000072E00D30626E662C4E91165201D00F0DB
:103920000EFA04F1180000F00AFA2461C6F107004B
:103930006462A061E56484F85050524649463846B6
:1039400000F0F2F82060B8F1000F01D0C8F8004094
:10395000BDE8F08730B5114900E011460A6882429F
:10396000FBD34B685C18844203D14068184448601C
:10397000084643681C18944209D1084C183C246836
:10398000A24209D052681A4442600A681268026072
:10399000814200D0086030BD0460F9E7B400002027
:1039A0000648416B096829B1416BC968C968496813
:1039B000816270474FF0FF31FAE70000600000209D
:1039C00008484068401C4FF0500080F3118804D034
:1039D000BFF34F8FBFF36F8FFEE7BFF34F8FBFF380
:1039E0006F8FFEE7BC00002010B5064C01221102CB
:1039F0002046FDF779FC20460022BDE8104020213A
:103A0000FDF772BC0004024010B5074C00224FF4D1
:103A100080712046FDF768FC20460122BDE8104079
:103A20002021FDF761BC00000004024010B5064CE7
:103A3000012211022046FDF757FC20460122BDE875
:103A400010402021FDF750BC000402402DE9F04158
:103A50000546002700F06EFA324E306808B9FFF7CD
:103A6000D7FE706905424ED1C5B3083568070ED040
:103A700005F00700C0F108000544680707D0502092
:103A800080F31188BFF34F8FBFF36F8FFEE72DB325
:103A90007068854237D82348183001460C6801E029
:103AA00020460C466168A94202D221680029F7D15C
:103AB00031688C4227D00768216801606068083748
:103AC000411B10290FD96019420708D0502080F3FC
:103AD0001188BFF34F8FBFF36F8FFEE713E0416094
:103AE0006560FFF737FF61687068401A7060B26800
:103AF000904200D2B060706901430020C4E9000127
:103B0000F068401CF06000F047FC780707D05020B8
:103B100080F31188BFF34F8FBFF36F8FFEE73846F6
:103B2000BDE8F0819C00002010B5031F4FF08074A9
:103B30001C601B1F21F001011960191F044B0B6051
:103B400014390A60091F6FF0020244380A6010BD80
:103B5000C13900080A1A121DD31702EB9373401AD9
:103B600023F00303001DD21AC11700EB9171134B10
:103B700021F00301401AC3E90320DFED110A9FED94
:103B8000110A82420BDC002A17D001EE102A002312
:103B90001A46B8EEC11A012161EE200A0AE0002A95
:103BA0000BD001EE100A00231A46B8EEC11A1946CE
:103BB00061EE200A0120FFF73BBC7047C8000020DF
:103BC000000061440000964313460A460146022065
:103BD00000F006B813460A4601460120AFF3008004
:103BE0001CB580248DF800407E248DF804400C4CD8
:103BF00020706170A270E3701023012269460948A9
:103C0000FEF786FD1023042221460648FEF780FDBC
:103C10001023012201A90348FEF77AFD1CBD000014
:103C2000E50000200805002070B51B4C2078012815
:103C300030D11A481A4D012142782878FFF7C4FF85
:103C4000012202212878FFF7BFFF012203212878F3
:103C5000FFF7BAFF134E144D3078012803D12978AD
:103C60006278FFF7B7FF3078022803D1697862786D
:103C7000FFF7B0FF3078032803D1A9786278FFF707
:103C8000A9FF3078042803D1E9786278FFF7A2FF12
:103C90000020207070BD0000E30000200000002024
:103CA0004D00002048000020DF0000200E4C0025C1
:103CB000A0680228E06801D1401CE060012802D120
:103CC000256100F08FF9A0680128206901D1401C0E
:103CD0002061012802D100F063F9E560FFF7A4FF3D
:103CE0000220FFF7A5FCE3E70C000020D0E9013239
:103CF00001699A60D0E901235A604A68824201D181
:103D000082684A60002202610868401E08600868F4
:103D100070470000034B036003F1540008608020EB
:103D200010607047F800002000F108014FF0FF32EA
:103D3000C0E90112C16001610021016070470021EA
:103D40000161704730B50B685A1C02D000F10802BF
:103D500002E0026904E02246546825689D42FAD9CF
:103D600053684B6099608A60516008610168491C22
:103D7000016030BD42684A6093688B609368596007
:103D8000916008610168491C01607047502080F310
:103D90001188BFF34F8FBFF36F8F0A494868401CEB
:103DA000486001280CD10848006810F0FF0F07D0C8
:103DB000502080F31188BFF34F8FBFF36F8FFEE762
:103DC00070470000BC00002004ED00E0084948688E
:103DD00028B1401E486001D180F3118870475020FF
:103DE00080F31188BFF34F8FBFF36F8FFEE70000A2
:103DF000BC00002070B500282AD0164DA0F10804A0
:103E000060686969084207D1502080F31188BFF3C8
:103E10004F8FBFF36F8FFEE722683AB1502080F3D7
:103E20001188BFF34F8FBFF36F8FFEE78843606049
:103E300000F080F860686968084468602046FFF711
:103E400089FD2869401C2861BDE8704000F0A4BAD3
:103E500070BD00009C0000204FF0E02000210161B7
:103E6000816105494FF47A720968B1FBF2F1491E8C
:103E700041610721016170475C00002010B502001C
:103E800014D00F48006B38B1502080F31188BFF375
:103E90004F8FBFF36F8FFEE700F04CF80021104604
:103EA000FFF7FCFB00F078FA002807D105494FF036
:103EB00080500860BFF34F8FBFF36F8F10BD0000BD
:103EC0006000002004ED00E010B586B000240394EB
:103ED00005AA04A903A80494FFF71CFFDDE9030168
:103EE0000094CDE9011000230EA11048059A00F0BE
:103EF000C2F90F490028C86211D0502080F3118800
:103F0000BFF34F8FBFF36F8F4FF0FF3088620120F8
:103F10004861CC6006B0BDE8104000F005B906B0BD
:103F200010BD000049444C45000000005D38000809
:103F3000600000200248016B491C016370470000CB
:103F4000600000201448016B11B10121C16170476C
:103F50000021C1610169B1FA81F1C1F11F0101EBD9
:103F600081020E4951F822306BB101EB820101F15F
:103F700008034A6852684A609A4201D152684A600E
:103F8000D16801607047502080F31188BFF34F8FD4
:103F9000BFF36F8FFEE7000060000020B406002032
:103FA0001CB50E48102301224168491C4160812044
:103FB0008DF800007C208DF8040069460848FEF763
:103FC000A7FB1023012205490548FEF7A1FB10239A
:103FD000012201A90248FEF79BFB1CBDEC0000205A
:103FE000C40400201CB50F48102301228168491C1D
:103FF000816081208DF800007C208DF804006946E6
:104000000948FEF785FB074910230122491C064891
:10401000FEF77EFB1023012201A90348FEF778FB7F
:104020001CBD0000EC000020C40400202DED028B1C
:10403000154CDFED168A9FED168A00BF00F02EF8B2
:104040001448FCF76DFD00211248FCF713FD1148E0
:10405000FCF795FC80050ED50E48FCF792FC00EEAF
:10406000100AB8EE400A84ED070A20EE280AC0EED6
:10407000080AC4ED080A012207490648FCF7CEFDEC
:104080000220FFF7D5FAD9E70C0000200000044217
:10409000000020474C030020040000201C4B18782F
:1040A000012834D11B481C490278802A22D1827809
:1040B0007E2A1FD10A78CA70427818480A70012AED
:1040C00006D0022A08D0032A0AD0042A0CD00EE017
:1040D0000278521C02700AE04278521C427006E0DC
:1040E0008278521C827002E0C278521CC2704878FA
:1040F000401C48700878421E032A06D8084A1070EF
:10410000C878084950700120087000201870704766
:104110004C0000200000002048000020DF000020AC
:10412000DC0000200D0000201CB537480168374A2C
:10413000914207D1502080F31188BFF34F8FBFF316
:104140006F8FFEE700683149491E884207D1502031
:1041500080F31188BFF34F8FBFF36F8FFEE72C49B9
:1041600008780190FF20087008788DF800009DF80D
:1041700000009DF8002000F0F000904207D0502091
:1041800080F31188BFF34F8FBFF36F8FFEE79DF869
:104190000000204C00F0500020700720A06005E0D7
:1041A0009DF8002052008DF80020401E9DF8002050
:1041B0001206F5D4A060032807D0502080F31188A0
:1041C000BFF34F8FBFF36F8FFEE74FF44070A060D7
:1041D000019808700C482030016841F470010160BA
:1041E000016841F070410160FFF736FE0020606019
:1041F000FCF75CF80848016841F040410160FCF7B9
:1042000041F800201CBD000000ED00E071C20F412C
:1042100000E400E0BC00002034EF00E02DE9FF5F87
:104220008346DDE90E87994616468A469000FFF7D9
:104230000DFC05001CD05420FFF708FC040014D02E
:104240000020256384F85100CDE90240CDE90087C4
:104250004B46324651465846FFF730FB2046FFF7A3
:1042600055FA012004B0BDE8F09F2846FFF7C2FDD3
:104270004FF0FF30F6E7F0B585B0DDE90B640A9D3D
:10428000A6B1DCB1542700972663022684F851605A
:10429000002604AFCDE90246CDE90057FFF70EFB3B
:1042A0002046FFF733FA049805B0F0BD502080F3A4
:1042B0001188BFF34F8FBFF36F8FFEE7502080F35D
:1042C0001188BFF34F8FBFF36F8FFEE72DE9F041E9
:1042D0002F4C0026206B28B1A069401CA0613046FD
:1042E000BDE8F081E5686D1CE56013D1606B006886
:1042F00038B1502080F31188BFF34F8FBFF36F8F19
:10430000FEE7606BA16B6163A063206A401C2062C2
:10431000FFF746FBA06ADFF87C80854209D3606B1B
:104320000068A0B1606BC068C7687868854211D228
:10433000A0622068C06A00EB800158F821000128C3
:1043400000D90126E0690028C9D00126C7E74FF04F
:10435000FF30EDE7381DFFF7C9FCB86A18B107F167
:104360001800FFF7C3FCF96A012022698840104356
:10437000206101EB810108EB8100391DFFF7FAFC98
:10438000F86A2168C96A8842C9D30126C7E70000D4
:1043900060000020B40600202DE9F0472C4D0024D9
:1043A0002746286B38B1FFF7F1FC286B401E2863C5
:1043B000286B40B146E0502080F31188BFF34F8F47
:1043C000BFF36F8FFEE7A968224E0120D1B3A6F19B
:1043D000B40980463068E8B1F068C46804F1180098
:1043E000FFF784FC201DFFF781FCE06A2A6908FAC8
:1043F00000F11143296100EB800109EB8100211DCF
:10440000FFF7B8FCE06A2968C96A8842E2D3C5F8B8
:104410001C80DFE70CB1FFF7C3FAAC6944B1464634
:10442000FFF754FF00B1EE61641EF9D10020A861CE
:10443000E86938B10849012738070860BFF34F8F92
:10444000BFF36F8FFFF7C2FC3846BDE8F08700006E
:10445000600000206807002004ED00E04FF040708D
:10446000E1EE100A70470000F8440008112B000824
:1044700000000000000000008000000000000000BC
:10448000000000001C4500082D400008000000004E
:10449000000000008000000000000000000000009C
:1044A00014450008AD3C00080000000000000000BA
:1044B000800000000000000000000000044500082B
:1044C0006D350008000000000000000080000000C2
:1044D0000000000000000000000610160006101684
:1044E00000000000000000000102030406070809A4
:1044F000000000000102030464656661756C745479
:1045000061736B006D6F746F725F636F6E74726F47
:104510006C00000073637265656E000076697369F4
:104520006F6E00004445000800000020F800000005
:10453000000200083C460008F8000020284900005E
:104540001C02000800000000000000000000000045
:10455000000000000000F401000000000000000066
:10456000000000000000000000000000000000004B
:10457000000000000000000000000000000000003B
:10458000000000000000000000000000000000002B
:10459000000000000100000010000000000000000A
:1045A0000024F400000000000000000000000000F3
:1045B00000000000000000000000000000000000FB
:1045C00000000000000000000000000000000000EB
:1045D00000000000000000000000000000000000DB
:1045E00000000000000000000000000000000000CB
:1045F00000000000000000000000000000000000BB
:1046000000000000AAAAAAAA000000000000000002
:10461000000000000000000000000000000000009A
:10462000000000000000000000000000000000008A
:0C4630000102000000000000000000007B
:04000005080001C529
:00000001FF
