:020000040800F2
:10000000C0490020450300083B2400080D210008DA
:1000100039240008E3050008DD2D00080000000079
:100020000000000000000000000000008502000841
:10003000AD06000800000000E10200089924000855
:100040005F0300085F0300085F0300085F03000808
:100050005F0300085F0300085F0300085F030008F8
:100060005F0300085F0300085F030008E505000860
:100070005F0300085F0300085F0300085F030008D8
:10008000F10500085F0300085F0300085F03000834
:100090005F0300085F0300085F0300085F030008B8
:1000A0005F0300085F0300085F0300085F030008A8
:1000B0005F030008752500085F0300085F03000860
:1000C0005F0300085F0300085F0300085F03000888
:1000D0005F030008B92D0008C52D00085F03000864
:1000E0005F0300085F0300085F0300085F03000868
:1000F0005F030008892500085F0300085F0300080C
:100100005F0300085F0300085F0300085F03000847
:100110005F030008692800085F0300085F03000808
:100120005F0300085F030008FD0500085F03000887
:100130005F03000800000000000000005F030008EB
:100140005F0300085F0300085F0300085F03000807
:100150005F0300085F0300085F030008D12D00085B
:100160005F0300085F0300085F0300085F030008E7
:100170005F0300085F0300085F0300080000000041
:10018000000000005F030008000000000000000005
:100190005F03000800000000000000005F0300088B
:1001A0000000000000000000000000005F030008E5
:1001B0005F0300085F0300085F0300085F03000897
:1001C0005F03000800F002F800F04CF80AA090E885
:1001D000000C82448344AAF10107DA4501D100F002
:1001E00041F8AFF2090EBAE80F0013F0010F18BF83
:1001F000FB1A43F001031847F83E0000183F0000C7
:100200000A4410F8014B14F00F0508BF10F8015B09
:10021000240908BF10F8014B6D1E05D010F8013BF2
:100220006D1E01F8013BF9D1641E03D0641E01F874
:10023000015BFBD19142E4D370470000002300240E
:1002400000250026103A28BF78C1FBD8520728BFE6
:1002500030C148BF0B6070471FB503F0E5FE1FBDFE
:1002600010B510BD00F083F91146FFF7F5FF02F05D
:1002700075FE00F0A1F903B4FFF7F2FF03BC00F034
:10028000A9F900002C4B19680868B0E8F04F80F31A
:100290000988BFF36F8F4FF0000080F3118870471B
:1002A0000000000008480068006880F308884FF0EC
:1002B000000080F3148862B661B6BFF34F8FBFF3BE
:1002C0006F8F00DF00BF00BF08ED00E0DFF80C001B
:1002D000016841F470010160704700BF88ED00E0E3
:1002E000EFF30980BFF36F8F134B1A681EF0100FE6
:1002F00008BF20ED108A20E9F04F106009B44FF0DC
:10030000500080F31188BFF34F8FBFF36F8F03F05E
:10031000ABFB4FF0000080F3118809BC1968086836
:10032000B0E8F04F1EF0100F08BFB0EC108A80F359
:100330000988BFF36F8F704764000020EFF30580DA
:10034000704700000948804709480047FEE7FEE77C
:10035000FEE7FEE7FEE7FEE7FEE7FEE7FEE7FEE775
:1003600004480549054A064B70470000652500080A
:10037000C5010008C0430020C0490020C04500203E
:10038000C045002053EA020C00F069802DE9F04BD3
:100390004FF00006002B1FBFB3FA83F503FA05F4F4
:1003A00024FA05F65E4012BF1643B2FA82F502FA4D
:1003B00005F4C5F120051EBF22FA05FC44EA0C0431
:1003C000203556EA044C4FEA144418BF641C4FF021
:1003D00000084FF00009904271EB030C39D300295B
:1003E00019BFB1FA81F701FA07F6B0FA80F700FAFF
:1003F00007F6C7F120071EBF20FA07FC46EA0C06E5
:100400002037B6FBF4FCA7EB0507103F07F01F0BE6
:10041000CBF120060CFA0BFB2CFA06F644BFB346D0
:100420000026202FA4BF5E464FF0000B5BEA060CAF
:1004300008BF4FF0010B19EB0B09ABFB027C48EB3B
:100440000608C01B06FB02CC0BFB03CC71EB0C01B6
:10045000C1E70B46024641464846BDE8F08B13B55E
:100460004FF000004FF00001AFF30080BDE81C40EA
:10047000704710B5203AC0F00B80B1E81850203A10
:10048000A0E81850B1E81850A0E81850BFF4F5AF34
:100490005FEA027C24BFB1E81850A0E8185044BFBE
:1004A00018C918C0BDE810405FEA827C24BF51F82B
:1004B000043B40F8043B08BF7047D20728BF31F81F
:1004C000023B48BF11F8012B28BF20F8023B48BF70
:1004D00000F8012B70474FF000020429C0F0128091
:1004E00010F0030C00F01B80CCF1040CBCF1020FE7
:1004F00018BF00F8012BA8BF20F8022BA1EB0C01BC
:1005000000F00DB85FEAC17C24BF00F8012B00F8B1
:10051000012B48BF00F8012B70474FF0000200B5D7
:10052000134694469646203922BFA0E80C50A0E816
:100530000C50B1F12001BFF4F7AF090728BFA0E8C4
:100540000C5048BF0CC05DF804EB890028BF40F890
:10055000042B08BF704748BF20F8022B11F0804FD2
:1005600018BF00F8012B70477047704770477546F9
:1005700000F02CF8AE4605006946534620F007000F
:10058000854618B020B5FFF7EBFEBDE820404FF0E0
:1005900000064FF000074FF000084FF0000B21F06D
:1005A0000701AC46ACE8C009ACE8C009ACE8C0093A
:1005B000ACE8C0098D46704710B50446AFF3008023
:1005C0002046BDE81040FFF756BE000000487047C7
:1005D0006043002001491820ABBEFEE72600020060
:1005E0007047FEE7014800F0BFB80000E4040020B7
:1005F000014800F0B9B80000A4050020014800F04F
:10060000B3B800004405002001681823CAB2103AAC
:10061000B2FBF3F2054B6FF30901032A9B5CC36540
:1006200000D9091D8165084670470000A4400008F4
:1006300010B5014600208B698A6A4FF0C07453B12F
:10064000B3F5005F15D072B1012A0CD0022A0AD08E
:10065000032A09D104E01AB1012A06D0022A03D1E3
:10066000C96AC90100D5012010BDC96AA142FAD0EA
:1006700010BD002AF7D0012AF2D0022AF3D0032AB3
:10068000F3D010BD30B50468256825F480252560B9
:10069000046863608368402B036803D09960006836
:1006A000C26030BD9A600068C16030BD704772B6EC
:1006B000FEE72DE9F0410446876D00F0BFFA0646DB
:1006C00094F835000025022806D08020606584F863
:1006D00034500120BDE8F0812068016821F0160146
:1006E00001602068416921F080014161206C08B9F6
:1006F000A06C20B12068016821F008010160206829
:10070000016821F0010101600CE000F097FA801B04
:10071000052807D920206065032084F8350084F877
:100720003450D7E720680068C007EED194F85C1019
:100730003F208840B860012084F8350084F83450A8
:100740000020C7E790F83510022903D080214165C9
:1007500001207047052180F835100068016821F0FC
:1007600001010160002070472DE9F84304464FF075
:100770000009CDF8009063484FF41651A56D00684C
:10078000B0FBF1F72E6894F85C10082000FA01F134
:1007900031420FD021680A6852070BD50A6822F04F
:1007A00004020A6094F85C108840A860606D40F014
:1007B0000100606594F85C104FF0010808FA01F040
:1007C000304208D021684969090604D5A860606DE7
:1007D00040F00200606594F85C10042088403042CC
:1007E00008D021680968890704D5A860606D40F0C9
:1007F0000400606594F85C1010208840304218D0E6
:1008000021680968090714D5A860206801684903B0
:1008100004D50068000308D5A16C07E00168C9058C
:1008200003D4016821F008010160216C09B1204660
:10083000884794F85C1020208840304231D02168ED
:100840000968C9062DD5A86094F8350005282068E8
:10085000016806D0490347D5006800031DD4616CC8
:100860001CE021F0160101602068416921F080013F
:100870004161206C08B9A06C20B12068016821F0AA
:100880000801016094F85C103F208840A86084F85B
:10089000358084F83490216D1FE0E16B09B120466A
:1008A0008847606D00282BD0606DC00714D00520EC
:1008B00084F835002068016821F00101016000988A
:1008C000401C0090B84203D820680068C007F6D1E9
:1008D00084F8358084F83490E16C002910D001B0A0
:1008E0002046BDE8F04308470168C905D5D4016832
:1008F00021F01001016084F8358084F83490CCE751
:10090000BDE8F883600000202DE9F041044600F0C6
:1009100095F906465CB1022084F83500002584F87C
:1009200034502068016821F0010101600DE00120D0
:10093000BDE8F08100F082F9801B052805D9202050
:100940006065032084F83500F2E720680068C0077E
:10095000F0D12268116820480140D4E9010318430E
:10096000D4E903363343184363691843A369184332
:10097000E3691843236A18430843616A042903D1D1
:10098000D4E90B1319430843106020684069666A74
:1009900020F0070130460E43012704280CD1A06A3D
:1009A0000643E06A40B12046FFF742FE20B14020F6
:1009B000606584F83570BAE7206846612046FFF725
:1009C00023FE94F85C203F2191408160656584F8A6
:1009D00035700020ACE700003F8010F02DE9F041B9
:1009E0000446866D90F83400002501280DD00120C2
:1009F00084F8340094F835700020012F07D084F873
:100A0000340002252846BDE8F0810220FBE70227DA
:100A100084F8357060652046FFF734FE94F85C106A
:100A20003F208840B0602068016841F016010160F5
:100A3000206C20B12068016841F008010160206845
:100A4000016841F001010160DCE700002DE9F84F89
:100A5000DFF8ACA10022012403254FF00F090AF1B1
:100A6000040BAAF1040E00BF0B6804FA02F633402F
:100A7000B3426ED10F7907F00307012F01D0022F87
:100A800016D187684FEA420805FA08FC27EA0C07E6
:100A9000D1F80CC00CFA08FC4CEA070CC0F808C0EE
:100AA0004768B7430E79C6F3001696403E4346604A
:100AB0000E79F643B6070AD0C6684FEA420C05FA2B
:100AC0000CF7BE438F6807FA0CF73743C7600E79FF
:100AD00006F00306022E10D1D60800EB8608D8F8DF
:100AE000206057074FEAD76C09FA0CF7BE430F692D
:100AF00007FA0CF73743C8F8207006684FEA420C33
:100B000005FA0CF7BE430F7907F0030707FA0CF755
:100B1000374307604E6816F4403F6BD0394E376854
:100B200047F480473760366822F0030706F48046B2
:100B30000096354E07EB060CDCF8086897074FEA7D
:100B4000177809FA08F7BE43304FB84202D10027A0
:100B50001FE04FE02E4FB84201D1012719E02D4F81
:100B6000B84201D1022714E02B4FB84201D103272C
:100B70000FE02A4FB84201D104270AE0284FB842BB
:100B800001D1052705E0274FB84201D1062700E033
:100B9000072707FA08F73743CCF80878DAF8006037
:100BA0005746D1F804C09E435FEACC2C00D51E43C3
:100BB0003E60DBF800605F46D1F804C09E435FEA08
:100BC0008C2C00D51E433E60DEF800607746D1F8DD
:100BD00004C09E435FEA8C3C00D51E433E60084F34
:100BE000083F3E68D1F804C09E435FEACC3C00D584
:100BF0001E433E60521C102AFFF436AFBDE8F88F4A
:100C0000083C0140443802400030014000000240EE
:100C10000004024000080240000C024000100240A4
:100C200000140240001802400069084000D0012072
:100C300070470AB1816170470904FBE70148806889
:100C40007047000054000020024881680278114477
:100C500081607047540000200B4810B5016841F4D2
:100C600000710160016841F480610160016841F434
:100C700080710160032000F09FF80F2000F006F85B
:100C800000F050F8002010BD003C024030B5054691
:100C90001F4887B00024016841F48071016000683A
:100CA00006A900F48070009001A800F069F904988A
:100CB000A8B100F085F940001649174AB0FBF1F1E0
:100CC0001648491E026040F2E732C0E90324C0E939
:100CD0000114846100F0F6FB040003D015E000F07D
:100CE0006FF9E9E70D4800F039FC04000DD12D2023
:100CF00000F034F8102D07D2002229462D2000F0F4
:100D00003BF80748056000E0012407B0204630BDED
:100D10004038024040420F000020004004060020FE
:100D2000580000200C4882B0016841F48041016005
:100D3000006800F4804000900748001F016841F0FF
:100D4000805101600068002200F0805000900F2167
:100D5000901E02B000F010B844380240002809DBB1
:100D600000F01F02012191404009800000F1E020C5
:100D7000C0F8001170470000F0B40E4B1B680C4621
:100D8000C3F30223C3F10705042D00D90425191D5F
:100D9000072901D2002300E0DB1E012606FA05F137
:100DA000491E214099409E40761E16403143F0BCBA
:100DB00002F064B80CED00E0064900F00702086894
:100DC0004FF6FF03184040EA0220034A1043086030
:100DD000704700000CED00E00000FA052DE9F84333
:100DE0001748016841F0805101600068154F00F01C
:100DF0008050012600903E64FFF720FF05464FF427
:100E00007A78114C05E000BFFFF718FF401B404502
:100E10000DD86068C003F7D57E64FFF70FFF054665
:100E2000464607E0FFF70AFF401BB04202D9032005
:100E3000BDE8F88360688003F4D50020F8E700007F
:100E40004038024000000E42007000402DE9F0479B
:100E50000E46050065D0DFF81481D8F80000F7B21F
:100E600000F00F00B04207D288F80070D8F80000F8
:100E700000F00F00B04254D128683D4C810712D5D4
:100E8000400703D5206840F4E05020602878000730
:100E900003D5206840F4604020602068A96820F0F5
:100EA000F000084320602878C0072DD030496868DA
:100EB0000839012812D0022813D0032811D009685C
:100EC000890700292DDA216821F0030101432160FF
:100ED000FFF7B4FE814641F2883A0EE009688903C3
:100EE000EFE709688901ECE7FFF7A8FEA0EB09012D
:100EF000514502D90320BDE8F0872068696800F0F9
:100F00000C00B0EB810FEFD1D8F80010404601F093
:100F10000F01B14207D90770006800F00F00B0421E
:100F200001D00120E7E72878400705D52068E96867
:100F300020F4E050084320602878000706D5206898
:100F4000296920F4604040EAC100206000F058F8B0
:100F50002168084AC1F30311515CC8400649086082
:100F600006480068FFF792FE0020C4E7003C0240FC
:100F700008380240AC400008600000205800002003
:100F80000F2202600C4A136803F0030343601368E6
:100F900003F0F0038360136803F4E053C360126846
:100FA0004FF4E05303EAD20202610448006800F003
:100FB0000F0008607047000008380240003C024003
:100FC0000448054900680968044AC1F38221515C5C
:100FD000C84070476000002008380240BC4000084C
:100FE0000448054900680968044AC1F34231515C6C
:100FF000C84070476000002008380240BC4000082C
:10100000224810B5006810F00C02214815D0214983
:10101000042A11D01D4C241F082A0FD00C2A0CD1F1
:101020002268236802F03F025B0221D52068C0F3EA
:101030008810A0FB010120E0084610BD226823684B
:1010400002F03F025B0205D52068C0F38810A0FBC8
:10105000010104E02168C1F38811A1FB0001002314
:10106000FFF790F92168C1F30141491C49000AE0EA
:101070002168C1F38811A1FB00010023FFF782F969
:101080002168C1F30271B0FBF1F010BD08380240D5
:101090000024F40040787D012DE9F84F04007DD054
:1010A000DFF878B32078ABF10407C007A7F1040597
:1010B00050D0DBF800105846C1F3810101290FD050
:1010C0000168C1F38101022902D13968490207D4BC
:1010D0000068C0F38100032809D13868400206D5B2
:1010E0002868800336D560680028D8D032E0606870
:1010F000B0F5803F10D0B0F5A02F286810D020F4B4
:1011000080302860286820F4802028606068A0B1C2
:10111000FFF794FD06460CE0286840F48030F4E7C1
:1011200040F480202860F7E7FFF788FD801B6428E3
:1011300076D828688003F7D50CE0FFF77FFD0646D8
:1011400005E000BFFFF77AFD801B6428F0D828680F
:101150008003F7D42078DFF8C89280074FF0000AA8
:1011600044D5DBF80010584611F00C0F0FD0016881
:10117000C1F38101022902D13968490207D500680B
:10118000C0F3810003280AD13868400207D42868D8
:10119000800715D5E068012800D111E03AE1E06848
:1011A000B0B10120C9F80000FFF748FD064604E091
:1011B000FFF744FD801B0228BAD828688007F7D5BE
:1011C0002868216920F0F80040EAC10028600DE09D
:1011D000C9F800A0FFF732FD064604E0FFF72EFD38
:1011E000801B02281CD828688007F7D420780007C5
:1011F00027D5DFF828828B48616908F16C0881B136
:1012000001210160FFF71AFD064604E0FFF716FD15
:10121000801B022804D8D8F800008007F6D510E01B
:1012200089E0C0F800A0FFF709FD064605E000BF11
:10123000FFF704FD801B02287DD8D8F80000800746
:10124000F6D42078400769D574484FF0000838304C
:101250000068C0000BD471483830016841F08051FB
:10126000016000684FF0010800F0805000906E4E61
:101270003068C00511D4306840F480703060FFF7EA
:10128000DDFC009006E000BFFFF7D8FC0099401A93
:10129000022850D83068C005F6D5604EA068683680
:1012A00001280FD00528306810D020F001003060F0
:1012B000306820F004003060A068B8B1FFF7BEFCD1
:1012C00000900FE0306840F00100F4E740F00400C7
:1012D0003060F7E7FFF7B2FC0099411A41F288301D
:1012E000814264D830688007F4D50EE0FFF7A6FC91
:1012F000009007E0FFF7A2FC0099411A41F2883004
:10130000814254D830688007F4D4B8F1000F05D07A
:1013100042483830016821F080510160A069A8B3CB
:10132000DBF80010C1F38101022947D00228C9F877
:1013300060A005D000E03AE0FFF780FC044639E009
:10134000FFF77CFC064604E0FFF778FC801B0228D0
:101350002DD828688001F7D4F4E907010843E16833
:10136000324A490802EB0141A26841EA821108436E
:10137000217C40EA0160217D40EA01703860012053
:10138000C9F86000FFF75AFC044606E044E000BFDD
:10139000FFF754FC001B022809D828688001F7D504
:1013A0003AE000BFFFF74AFC001B022802D90320E5
:1013B000BDE8F88F28688001F4D42DE00128F7D02B
:1013C0003868E26900F48001914223D1226A00F07A
:1013D0003F0191421ED147F6C071626A0140B1EBF4
:1013E000821F17D1A26A4FF0FF3300F4403103EBA4
:1013F0005202B1EB024F0DD194F82C2000F0706135
:10140000B1EB026F06D194F8301000F0E040B0EB81
:10141000017F01D00120CBE70020C9E70838024056
:1014200000004742800E4742007000400000FFFF6E
:101430007047704770B590F83C20012A32D00124E3
:1014400080F83C40022280F83D2003685A689D687D
:1014500022F070060A6832435A60134B02689A42BF
:1014600014D0B2F1804F11D0104B9A420ED0104BD5
:101470009A420BD00F4B9A4208D00F4B9A4205D09C
:101480000E4B9A4202D00E4B9A4204D1496825F085
:1014900080031943916080F83D40002180F83C10A2
:1014A000084670BD022070BD0000014000040040ED
:1014B00000080040000C00400004014000400140D2
:1014C0000018004010B5040003D094F83D0010B19E
:1014D00007E0012010BD002084F83C00204600F009
:1014E0001FF8022084F83D00211D206801F052F809
:1014F000012084F8460084F83E0084F83F0084F818
:10150000400084F8410084F8420084F8430084F8E5
:10151000440084F8450084F83D00002010BD000020
:1015200008B500680B49884212D10B48016841F0A8
:10153000020101600068002200F002000090062114
:101540001D20FFF719FCBDE808401D20FFF706BC71
:1015500008BD0000000400404038024090F83D10F3
:10156000012901D001207047022180F83D10016857
:10157000CA6842F00102CA6000681149884214D06A
:10158000B0F1804F11D00F4988420ED00E498842E9
:101590000BD00E49884208D00D49884205D00D492C
:1015A000884202D00C49884204D1816801F00701C9
:1015B000062903D0016841F0010101600020704755
:1015C000000001400004004000080040000C004002
:1015D00000040140004001400018004070B504467E
:1015E00090F83C000025012817D0012684F83C60C3
:1015F000022084F83D002068826822F0770222F4FD
:101600007F4282600868502838D00DDC20284FD0F7
:1016100005DC90B3102811D14AE0022070BD3028BB
:1016200046D040280AD13BE060282FD070280DD04A
:10163000B0F5805F03D0B0F5005F12D0012584F8CB
:101640003D60002084F83C00284670BDCB68D1E99D
:101650000121206801F00FF82068816841F07701CE
:1016600009E0CB68D1E90121206801F004F8206885
:10167000816841F480418160E1E719E0CA68496806
:10168000206801F0CDF85021206806E0CA6849685A
:10169000206801F0D6F86021206800F0F6FFCEE760
:1016A000CA684968206801F0BBF840212068F4E767
:1016B000226801461046F0E7704770B5044600689E
:1016C00001694FF00005C943890715D4C168C943B2
:1016D000890711D4E91E0161012020772068806903
:1016E0008007204602D0FFF7E7FF04E000F0C0F8D3
:1016F000204600F052F9257720680169C94349075F
:1017000017D4C168C943490713D46FF004010161BC
:10171000022020772068806910F4407F204602D0A4
:10172000FFF7CAFF04E000F0A3F8204600F035F907
:10173000257720680169C943090716D4C168C943E0
:10174000090712D46FF00801016104202077206896
:10175000C0698007204602D0FFF7AEFF04E000F02A
:1017600087F8204600F019F9257720680169C943F8
:10177000C90617D4C168C943C90613D46FF0100154
:101780000161082020772068C06910F4407F20465E
:1017900002D0FFF791FF04E000F06AF8204600F065
:1017A000FCF8257720680169C943C90708D1C168D9
:1017B000C943C90704D1891E0161204600F052F9CE
:1017C00020680169C943090609D4C168C9430906EB
:1017D00005D46FF0800101612046FFF729FE2068E3
:1017E0000169C943490609D4C168C943490605D4FA
:1017F0006FF040010161204600F03EF92068016968
:10180000C94389060BD4C168C943890607D46FF060
:10181000200101612046BDE87040FFF70ABE70BD9F
:1018200010B586B0044614216846FEF776FE0D49D1
:101830002068884214D10C480021026842F002025C
:101840000260006800F00200059003200090022072
:10185000CDE90101CDE9031069460448FFF7F6F828
:1018600006B010BD000400403038024000040240C1
:10187000704770B5044690F83C0000260D460128DC
:101880000FD0012084F83C006AB1042A1DD0082A38
:101890002FD00C2A3FD00126002084F83C0030468F
:1018A00070BD022070BD206800F0F8FE20688169DC
:1018B00041F0080181612068816921F004018161A2
:1018C000206881692A69114311E0206800F016FF41
:1018D0002068816941F4006181612068816921F497
:1018E00080618161206881692A6941EA0221816100
:1018F000D2E7206800F038FF2068C16941F0080194
:10190000C1612068C16921F00401C1612068C16919
:101910002A69114311E0206800F05AFF2068C1696C
:1019200041F40061C1612068C16921F48061C16135
:101930002068C1692A6941EA0221C161ACE710B59A
:10194000040003D094F83D0010B107E0012010BD61
:10195000002084F83C00204600F01EF8022084F8A5
:101960003D00211D206800F015FE012084F846008E
:1019700084F83E0084F83F0084F8400084F8410079
:1019800084F8420084F8430084F8440084F8450059
:1019900084F83D00002010BD7047704710B5044624
:1019A000022249B104290ED0082913D094F841002D
:1019B000012816D0012010BD94F83E000128F9D16D
:1019C00084F83E200FE094F83F000128F2D184F81B
:1019D0003F2008E094F840000128EBD184F8402033
:1019E00001E084F841200122206800F037FE16490A
:1019F0002068164A884201D0904203D1436C43F4D8
:101A0000004343642068884213D0B0F1804F10D067
:101A10000F4988420DD00F4988420AD00E498842AA
:101A200007D0904205D00D49884202D00C49884227
:101A300004D1816801F00701062903D0016841F053
:101A400001010160002010BD0000014000040140C0
:101A50000004004000080040000C0040004001402D
:101A60000018004000680349884201D1FFF7ECB834
:101A7000704700000020004070477047704700002A
:101A8000F8B5016804460868CA684B6910F00F0F82
:101A90004FF0000559D003F0010602F49077374368
:101AA00065D0C10705D0D10503D5216C41F00101F6
:101AB0002164410705D5D90703D0216C41F002010B
:101AC0002164810705D5D90703D0216C41F00401B9
:101AD0002164010707D502F02001314303D0216CB6
:101AE00041F008012164216C00293AD0800604D518
:101AF000900602D5204600F06DFF20684069216CF9
:101B0000C0F38010090700D460B3204600F02DFF19
:101B100020684069400621D52068143050E8001F35
:101B200021F0400140E80012002AF5D1A06BA8B1D5
:101B30006C490165A06BFEF705FE002811D0A06B73
:101B4000016D01B0BDE8F040084783060FD593064C
:101B50000DD52046BDE8F84000F03CBF2046FFF719
:101B60008DFFF8BD2046FFF789FF2564F8BD266B81
:101B70002023012E79D1C60677D5D60675D50868FB
:101B8000486800904869400640D5A16B08684068E5
:101B90000004000CEAD0A28D8242E7D9E085C86932
:101BA000B0F5807F2DD020680C3050E8001F21F464
:101BB000807140E80012002AF5D12068143050E806
:101BC000001F21F0010140E80012002AF5D1206831
:101BD000143050E8001F21F0400140E80012002AB4
:101BE000F5D184F83E30256320680C3050E8001FA2
:101BF00021F0100140E80012002AF5D1A06BFEF799
:101C000058FDA08DE18D401A81B229E0A08DE18DB3
:101C1000401A81B2E08D0028A8D00029A6D0206803
:101C20000C3050E8002F22F4907240E80026002E7D
:101C3000F5D12068143050E8002F22F0010240E86E
:101C40000026002EF5D184F83E30256320680C3044
:101C500050E8002F22F0100240E80023002BF5D1BD
:101C60002046FFF70AFFF8BDFFE705062BD515064E
:101C700029D594F83D002128F5D1A068B0F5805F02
:101C800001D12069B0B1206A411C2162216800782D
:101C90004860E08C401E0004000CE084E3D1206822
:101CA000C16821F08001C1602068C16841F0400135
:101CB000C160D8E7206A0088C0F308004860206A45
:101CC000801C2062E5E74006CDD55006CBD5CA681A
:101CD000204622F04002CA6084F83D3000F015FA38
:101CE000C1E700007528000870B5040004D094F81E
:101CF0003D00002510B106E0012070BD84F83C5085
:101D0000204600F023F8242084F83D002068C168B4
:101D100021F40051C160204600F0BCFE206801693A
:101D200021F4904101612068416921F02A0141615B
:101D30002068C16841F40051C1602564202084F806
:101D40003D0084F83E00002070BD00002DE9F04FFA
:101D500087B0054614216846FEF7DFFB8F488F49A0
:101D6000DFF834821038D5F800C0002402220323A3
:101D70004E0507154FF0080E4FF480794FF4403AA6
:101D8000C44553D1D1F800C04CF4801CC1F800C048
:101D9000096801F480110591016841F004010160B6
:101DA000016801F004010591016841F0080101603A
:101DB00000689B4600F008000590D002009001AA40
:101DC0000220CDF810E082E81108F0466946744818
:101DD000FEF73CFE0420009001AA0220CDF81080FE
:101DE00082E8110869466F48FEF730FEDFF8BC81D3
:101DF0006D49404602C0E0E80264E0E8034740F86D
:101E0000044C80E810064046C8F82440FEF77CFDEC
:101E100008B1FEF74CFCC5F83880002206213520B9
:101E2000C8F83850FEF7A8FF352046E0DFF880817B
:101E3000DFF868B1C4450BF1040B43D1DBF800C0F7
:101E40004CF0100CCBF800C0DBF8001001F01001D2
:101E50000591016841F0010101600068694600F0E8
:101E6000010005904FF4C0608DE815000720CDE912
:101E700003305048FEF7EAFDDFF830814E4908F1A3
:101E80006008404602C0E0E80264E0E8034740F82A
:101E9000044C80E810064046C8F82440FEF734FDA4
:101EA00008B1FEF704FCC5F8388000220621252081
:101EB000C8F83850FEF760FF2520FEF74FFF07B047
:101EC000BDE8F08FDFF8F480C4453ED1D1F800C002
:101ED0004CF4003CC1F800C0096801F400310591E0
:101EE000016841F0010101600068694600F00100ED
:101EF00005900C208DE815000720CDE903302D4812
:101F0000FEF7A4FDDFF8A480274908F1C008404689
:101F1000783102C0E0E80264E0E8034740F8044C8E
:101F200080E810064046C8F82440FEF7EDFC08B1F2
:101F3000FEF7BDFBC5F83880002206212620C8F830
:101F40003850FEF719FF2620B7E71D498C45B6D15A
:101F5000DBF8005045F02005CBF80050DBF800100E
:101F600001F020010591016841F004010160006861
:101F7000694600F004000590C0208DE81500CDE909
:101F8000033E0748FEF762FD002207214720FEF7C7
:101F9000F3FE472091E70000005000404038024027
:101FA00000080240000C024010600240E4040020DF
:101FB0000010014000000240406402400044004024
:101FC0000014014090F83E30202B0ED159B152B18F
:101FD00090F83C30012B08D0012380F83C300023DE
:101FE000036300F0DDBD0120704702207047000050
:101FF00010B5044600680F4988420ED10E480F4ABA
:102000000121017011700E4A117041780322491CA0
:1020100041700C490C48FFF7D5FF0C4920688842F5
:1020200007D109480422BDE8104009498838FFF764
:10203000C9BF10BD0044004050000020CD0000206A
:10204000F4000020000000205C040020005000404C
:1020500003000020704700002DE9F843044690F883
:102060003D001F4616460D4620284CD1C5B1BEB1D5
:1020700094F83C00012846D0012084F83C004FF041
:102080000008C4F84080212084F83D00FEF7D6FD0A
:10209000A6848146E684A068B0F5805F03D004E0A2
:1020A0000120BDE8F883206928B12E465FF00005C5
:1020B00084F83C800EE00026FAE78021204600F0FC
:1020C000B9FDA0B9AEB116F8010B21684860E08CEB
:1020D000401EE084E08C4B464FF000020097002841
:1020E000EBD14FF04001204600F0A4FD30B10320B9
:1020F000D7E735F8020BC0F30800E6E7202084F8A4
:102100003D000020CDE70220CBE77047FEE700004E
:10211000154808B5016841F400110160016801F437
:1021200000110091016841F4800101600068002203
:1021300000F48000009005210B20FEF71DFE0B200F
:10214000FEF70CFE002205211020FEF715FE1020E0
:10215000FEF704FE002205213A20FEF70DFEBDE841
:1021600008403A20FEF7FABD3038024010B59CB066
:102170001C2216496846FEF77CF90021684600F0EB
:10218000C5FF134C11491C22E0621C3107A8FEF761
:1021900070F9002107A800F0B9FF0C4920631C2248
:1021A00038310EA8FEF765F900210EA800F0AEFF49
:1021B000064960631C22543115A8FEF75AF9002124
:1021C00015A800F0A3FFA0631CB010BD34400008A8
:1021D000080000202DE9F04387B014216846FEF77F
:1021E0009CF92F480024016841F0800101600168DA
:1021F00001F080010591016841F00401016001686E
:1022000001F004010591016841F0010101600168DC
:1022100001F001010591016841F0020101600168CE
:1022200001F002010591016841F0080101600068B8
:10223000DFF8708000F0080005900022042140467D
:10224000FEF7F7FCDFF860904FF48957002239461B
:102250004846FEF7EEFC132002258DE83100694662
:102260004046FEF7F3FB042000900126CDE901640F
:10227000694640460394FEF7E9FB20208DE83100D3
:1022800069460A48FEF7E2FB0097CDE9016469461A
:1022900048460394FEF7DAFB07B0BDE8F083000080
:1022A00030380240000802400004024000000240B2
:1022B00010B58EB000240794089409940A940B94E6
:1022C0001C2168460C94FEF728F922482049016039
:1022D000B321C0E901142721C0E9031480218161E1
:1022E000FFF7F0F808B1FEF7E2F94FF480500790DD
:1022F00007A91848FFF772F908B1FEF7D8F9154891
:10230000FFF71DFB08B1FEF7D2F90B940BA911489A
:102310000C94FFF78FF808B1FEF7C9F96020CDE9FA
:1023200000040294082269460A480494FFF7A1FABF
:1023300008B1FEF7BCF90C2269460648FFF799FA86
:1023400008B1FEF7B4F90348FFF76AFA0EB010BD02
:10235000000400408C0300200C4810B50A490160BD
:102360004FF4E1314160002181600C22C160C0E97D
:1023700004128161C161FFF7B7FC002803D0BDE8FA
:102380001040FEF794B910BD00500040D403002067
:102390000C4810B50A4901604FF4E1314160002159
:1023A00081600C22C160C0E904128161C161FFF744
:1023B0009BFC002803D0BDE81040FEF778B910BDA3
:1023C00000100140180400200C4810B50A490160B3
:1023D0004FF4E1314160002181600C22C160C0E90D
:1023E00004128161C161FFF77FFC002803D0BDE8C2
:1023F0001040FEF75CB910BD004400405C040020B2
:102400000C4810B50A4901604FF4E13141600021E8
:1024100081600C22C160C0E904128161C161FFF7D3
:1024200063FC002803D0BDE81040FEF740B910BDA2
:1024300000140140A0040020FEE7FEE7134E002533
:10244000134C0127A06801280FD112480178407869
:1024500001F008F9A56070780A21B0FBF1F201FBE8
:10246000120111B908B1E76002E0E068012809D162
:10247000206940F2DC51401C2061884202DD256168
:10248000E761E560022000F035FEDBE74C0000204C
:1024900008000020CE00002010B5502080F31188E5
:1024A000BFF34F8FBFF36F8F01F0F6FC18B10449F3
:1024B0004FF080500860002080F3118810BD0000AC
:1024C00004ED00E070B594B034216846FEF725F8BD
:1024D00014210DA8FEF721F820480025016841F0DD
:1024E00080510160006800F0805012901C48016823
:1024F00041F4404101600068022400F44040129021
:1025000001200090000401908001CDE906400F26D3
:102510000896D820CDE909040520CDE90B046846CA
:10252000FEF7BAFD08B172B6FEE7FEF757FC08B138
:1025300072B6FEE74FF4A050CDE90F504FF4805033
:102540001190CDE90D6405210DA8FEF77FFC002850
:1025500001D072B6FEE714B070BD000040380240F2
:10256000007000400248016841F47001016070474A
:1025700088ED00E003496FF0010009680861014837
:10258000FFF79BB88C0300200148FFF796B80000C6
:1025900004060020F0B50268254C264D264E274F34
:1025A000274B4FF0804CA04209D0604507D0A8428D
:1025B00005D0B04203D0B84201D0984204D122F0F5
:1025C000700E4A6842EA0E02A0421BD0604519D044
:1025D000A84217D0B04215D0B84213D0984211D0BB
:1025E000184DA8420ED0184DA8420BD0174DA84246
:1025F00008D0174DA84205D0164DA84202D0164D5E
:10260000A84203D122F44075CA682A434D6922F0DA
:1026100080022A4302608A68C2620A688262A0421B
:1026200001D0984201D10969016301214161F0BDE6
:10263000000001400004004000080040000C004081
:1026400000040140004001400044014000480140B6
:1026500000180040001C00400020004010B501F0B0
:102660001F030121046A99408C430462016A9A4065
:102670001143016210BD10B5846842EA032224F4BC
:102680007F440A432243826010BD826822F07002B8
:102690000A4342F00701816070470000F0B5026A0A
:1026A00022F001020262036A42688469124E24F039
:1026B00073050C682C4323F002058B682B430D4DEA
:1026C000A84201D0B04205D123F00807CB683B43B4
:1026D00023F00403A84201D0B04205D14D6922F491
:1026E000407215438A692A434260846149684163A4
:1026F0000362F0BD0000014000040140F0B5026A31
:1027000022F010020262026A436884690D6824F4B0
:10271000E64444EA05248D6822F0200242EA0512CC
:102720000F4D104EA84201D0B04206D1CF6822F022
:10273000800242EA071222F04002A84201D0B042D1
:1027400007D14D6923F4406343EA85038D6943EA69
:10275000850343608461496881630262F0BD0000C3
:102760000000014000040140F0B5026A22F48072CA
:102770000262026A4368C46922F4007224F073059D
:102780000C68124E2C438D6842EA05220E4DA84279
:1027900001D0B04206D1CF6822F4006242EA07229B
:1027A00022F48062A84201D0B04207D14D6923F4DF
:1027B000405343EA05138D6943EA05134360C4613E
:1027C0004968C1630262F0BD00000140000401409D
:1027D00030B5026A22F480520262046A4268C36918
:1027E0000D6823F4E64343EA05238D6824F400547E
:1027F00044EA0534084DA84202D0084DA84204D14D
:102800004D6922F4804242EA85124260C361496800
:102810000164046230BD000000000140000401407A
:1028200010B5036A046A24F001040462846924F088
:10283000F00444EA021423F00A020A4384610262AB
:1028400010BD10B5036A23F0100303628369046AA4
:1028500023F4704343EA023224F0A00343EA011157
:102860008261016210BD00000148FFF709B9000054
:10287000D403002010B5806B0021C185C184FFF70F
:10288000FDF810BD70B5846B2068406994F83D1068
:10289000C0F3C0100025212904D118B1E5842046D9
:1028A00000F08AF82068406994F83E10C0F3801068
:1028B000222904D118B1E585204600F056F8206C95
:1028C00040F0100020642046FFF7D8F870BD10B526
:1028D0000146806B09680968C9052FD40021C185AC
:1028E00001680C3151E8002F22F4807241E8002386
:1028F000002BF5D10168143151E8002F22F00102BC
:1029000041E80023002BF5D10168143151E8002F74
:1029100022F0400241E80023002BF5D1202180F86D
:102920003E10016B012909D101680C3151E8002FDB
:1029300022F0100241E80023002BF5D1016B0129A0
:1029400002D0FFF755FB10BD818DFFF796F810BD43
:1029500010B5806B016B012902D0FFF77BFB10BD26
:10296000818D4908FFF789F810BD01680C3151E8E5
:10297000002F22F4907241E80023002BF5D101686A
:10298000143151E8002F22F0010241E80023002B0E
:10299000F5D1016B012909D101680C3151E8002FF3
:1029A00022F0100241E80023002BF5D1202180F80D
:1029B0003E1000210163704701680C3151E8002F7F
:1029C00022F0C00241E80023002BF5D1202180F83D
:1029D0003D10704708B590F83E10222901D0022022
:1029E00008BD82684FF480539A4201D1016921B138
:1029F000816A9A421BD04AB10AE00268816A526831
:102A0000C2F308020A80816A891C08E0026972B177
:102A10000268526802F07F020A70816A491C816272
:102A2000C18D491E0904090CC18503D019E0026853
:102A30005268F1E70168CA6822F02002CA600168A2
:102A4000CA6822F48072CA6001684A6922F00102F1
:102A50004A61202180F83E10016B012903D0FFF765
:102A6000C7FA002008BD0021016301680C3151E85C
:102A7000002F22F0100241E80023002BF5D101685D
:102A80000A68D20602D50A6849680091818DFEF76E
:102A9000F4FFE6E770B5044600680169E26821F4D6
:102AA0004051114301612169A068E26908436169ED
:102AB000114308432168CA6849F20C639A430243F0
:102AC000CA6020684169A26921F4407111434161E3
:102AD00031492068884202D03049884202D1FEF74D
:102AE0007FFA01E0FEF76CFAE26900231921642500
:102AF0003226B2F5004F626828D0A0FB0101930F87
:102B00009200FDF73FFC0146B0FBF5F06FF01802B4
:102B1000504301EB800006EB0010B0FBF5F000F035
:102B2000F002B1FBF5F002EB0012B1FBF5F06FF033
:102B30001803584301EB800006EB0010B0FBF5F0E2
:102B400000F00F0021681044886070BDA0FB0101F7
:102B500092185B41FDF716FC0146B0FBF5F002014F
:102B6000B1FBF5F06FF01803584301EB800006EB62
:102B7000C000B0FBF5F000F0F80002EB4002B1FB42
:102B8000F5F0584301EB800006EBC000B0FBF5F018
:102B900000F00700D6E700000010014000140140DB
:102BA00038B58162828500251346044605642220DB
:102BB00084F83E00A26B1C48D063A26B1B481064D3
:102BC000A26B1B48D064A06B0A4605652168A06B08
:102BD000091DFDF703FF206801684068009084F834
:102BE0003C50206948B120680C3050E8001F41F487
:102BF000807140E80012002AF5D12068143050E8B6
:102C0000001F41F0010140E80012002AF5D12068C0
:102C1000143050E8001F41F0400140E80012002A43
:102C2000F5D1002038BD0000CF2800085129000848
:102C3000852800082DE9F041984617460E460446BF
:102C4000069D27E0681C25D02DB1FDF7F7FFA0EB0E
:102C50000800A8421ED920680C3050E8001F21F45B
:102C6000D07140E80012002AF5D12068143050E8F5
:102C7000001F21F0010140E80012002AF5D12020B8
:102C800084F83D0084F83E00002084F83C000320D6
:102C9000BDE8F0812068006836EA000004D000201A
:102CA000B842CFD00020F3E70120F9E72DE9F05F2B
:102CB000394E0025394F7078394C4FF0010A4FF0EA
:102CC00014094FF0020B012822D1A4F808A0208893
:102CD000D046401C2080FA20A08000224FF4805172
:102CE0003048FDF7A6FF2089022804D1C102012245
:102CF0002C48FDF79EFF2088A188884222D82A49C7
:102D000081F80080B069401CB0613968C1F840901A
:102D10007078022814D1A4F808B020880122401C41
:102D200020804FF48C70A080D84611031D48FDF719
:102D300080FF2088A18888420CD83968C1F840906B
:102D4000BDE8F09F38680564A5806580258086F819
:102D500001B0E0E738680564A580658013482580E8
:102D600011497570057081F8008070690A21401C56
:102D700070610F484078B0FBF1F201FB12000028AF
:102D8000DED10548801C0178417080F800A0094818
:102D9000C0F800A0D4E70000CC0000208C03002085
:102DA0003C43002000040240280000200B000020CB
:102DB0004C000020100000200148FEF761BE00001A
:102DC000180400200148FEF75BBE00005C040020F0
:102DD0000148FEF755BE0000A0040020FEE70000F9
:102DE000B2EE041A2DE9F04120EE010A0D46DDE9AC
:102DF0000676BDEEC00A10EE101A002900DA49422C
:102E000020EE810A1FFA81FCBDEEC00A10EE104AC6
:102E1000002C00DA644216490870FD2048708D705D
:102E2000100AC8700A71180A48718B714FEA1C2089
:102E3000C87181F808C0200E4872200C8872200AE0
:102E4000C8720C734F738E736B20C87309480C469D
:102E5000102381681A46491C816021460648FFF705
:102E6000FBF82046BDE8F0411021FDF734BB00001F
:102E700050430020CC000020D40300200907090E95
:102E8000002804DB00F1E02080F80014704700F017
:102E90000F0000F1E02080F8141D70472DE9F05F6D
:102EA000294E0025294F3078DFF8A4B0294C4FF483
:102EB00016694FF0140A4FF00208012819D1208139
:102EC00020880022401C2080A4F804900421584649
:102ED000FDF7AFFE2089022804D1012204215846C3
:102EE000FDF7A7FE2088A18888421ED83968C1F85E
:102EF0003CA03078022816D117480078012812D15A
:102F0000A4F8088020880122401C2080A4F80490A6
:102F100004215846FDF78DFE2088A18888420CD8F0
:102F20003968C1F83CA0BDE8F09F3868C563A5804A
:102F30006580258086F80080DEE73868C563A58057
:102F4000658025803570EEE7CC0000208C030020E2
:102F5000000802404643002008000020FDF77CFEE8
:102F6000FFF7B0FAFFF736F9FFF7D2F8FFF710FADC
:102F7000FFF72AFAFFF7F0F9FFF79AF9FFF740FA9F
:102F800003221B491B48FFF71DF819490422C91CDD
:102F90001948FFF717F80C211848FEF7FFFC082125
:102FA0001648FEF7FBFC164C012211032046FDF7E4
:102FB00040FE012204211348FDF73BFE0022A1152B
:102FC0002046FDF736FE002220212046FDF731FE87
:102FD00000F078FD00F098FD0B4901204870087062
:102FE0000A490870C870FFF7C1F800F08AF8FEE7D8
:102FF000000000205C040020D40300208C0300208B
:103000000004024000080240CE0000204C000020D6
:1030100001460020842900D0C81C70470025324C8E
:103020004FF47A670126E069012804D1022020705C
:103030002E480670E561FFF731FFA07801280DD119
:10304000A088401C80B2A080E188884206D16069D7
:10305000401C6061E670A580A57002E0E078012860
:1030600004D1A069401CA061FFF720FE6078012810
:103070000BD11F4841780078081A02280DD04FF470
:103080009670E080A660A67065702078012807D051
:10309000022816D0032821D022E04FF41670F0E762
:1030A000E06B401CE06300F027FAE06B90FBF7F167
:1030B00007FB1100A0B903202070E670A580A57061
:1030C0000EE0206C401C206400F028FA206C90FB7D
:1030D000F7F107FB110018B9267001E000F02EFA95
:1030E000022000F007F89EE708000020CC00002036
:1030F000CE00002010B500B9012000F051FC0020E6
:1031000010BD10B500F072FC002010BD7FB50D465B
:1031100004464169B0F9080081B1A16971B1FFF7B6
:1031200077FFD4E905128DE80700D4E900102B469B
:10313000226900F086FE039004B070BDFFF768FFBF
:1031400003A9CDE90001208A2B4682B2D4E9001000
:1031500000F04AFE012801D00020EDE70398EBE7DC
:103160002DE9F04100F04EFD0E4A0F4C01200025E4
:103170002478516802F1280305261F5C012F08D12D
:10318000071D2744B7FBF6FC06FB1C7717701D5480
:10319000491C401CC0B20528EFD35160BDE8F04186
:1031A00000F076BD08010020CE0000202DE9F0419E
:1031B000184C0F460546E6682068001D00F028FB05
:1031C00038B9206890F82C1001208840216981438B
:1031D0002161681C07D137B12168BDE8F0410E4874
:1031E000091D00F059BB20683544B542456021688F
:1031F00005D2A06BBDE8F041091D00F035BB606B46
:10320000091D00F031FBA06A854200D2A562BDE82D
:10321000F081000064000020280700202DE9F04123
:10322000054600F045FB2E4CA068401CA0602068BD
:103230002C4F10B1606940B32DE02560A0680128D3
:1032400029D1002606EB860007EB800000F0FEFA8D
:10325000761C072EF6D323488C3000F0F7FA21486D
:10326000A03000F0F3FA1F48B43000F0EFFA1D4828
:10327000C83000F0EBFA1B48DC3000F0E7FA1948E0
:103280008C3060631430A06305E02068E96AC06A8E
:10329000884200D82560606A401C6062E96A0120AB
:1032A000226988401043206101EB810007EB800018
:1032B000291D00F0F1FA00F01BFB606900280CD01A
:1032C0002068E96AC06A884207D207494FF08050F7
:1032D0000860BFF34F8FBFF36F8FBDE8F081000030
:1032E000640000204C06002004ED00E010B5044608
:1032F00090F8510058B101280CD002280FD050206E
:1033000080F31188BFF34F8FBFF36F8FFEE7206B01
:1033100000F002FB2046BDE8104000F0FDBA10BDF1
:1033200010484FF47051420706D0C01D0D4920F0DF
:103330000700411AC1F570510B4A00230144C2E94C
:1033400000030839183A21F0070111604B600B6047
:103350000B1AC0E9001393604FF0004053605061B6
:10336000704700003C070020B8000020144E154CA8
:10337000A6F1C8074FF08058DFF84C9012E000BF6C
:1033800000F096FAF068C568281D00F041FAA068C0
:10339000401EA0606068401E606000F0A9FA2846E8
:1033A000FFF7A4FF60680028EAD138680128F9D93E
:1033B000C9F80080BFF34F8FBFF36F8FF2E70000B3
:1033C000140700206400002004ED00E02DE9F04720
:1033D0009A46DDE9098481466FF00303206B03EB15
:1033E00082021044089E20F00707780707D050207B
:1033F00080F31188BFF34F8FBFF36F8FFEE7002577
:1034000061B1002023180A5C83F834200A5C12B1F1
:10341000401C1028F6D384F8435001E084F834505F
:10342000072E00D30626E662C4E91165201D00F0D0
:1034300018FA04F1180000F014FA2461C6F107002C
:103440006462A061E56484F85050524649463846AB
:1034500000F0F2F82060B8F1000F01D0C8F8004089
:10346000BDE8F08730B5114900E011460A68824294
:10347000FBD34B685C18844203D140681844486011
:10348000084643681C18944209D1084C183C24682B
:10349000A24209D052681A4442600A681268026067
:1034A000814200D0086030BD0460F9E7B800002018
:1034B0000648416B096829B1416BC968C968496808
:1034C000816270474FF0FF31FAE70000640000208E
:1034D00008484068401C4FF0500080F3118804D029
:1034E000BFF34F8FBFF36F8FFEE7BFF34F8FBFF375
:1034F0006F8FFEE7C000002010B5074C00224FF48C
:1035000080712046FDF795FB20460122BDE8104062
:103510002021FDF78EBB00000004024010B5064CD0
:10352000012211022046FDF784FB20460022BDE85F
:1035300010402021FDF77DBB0004024010B5064C71
:10354000012211022046FDF774FB20460122BDE84E
:1035500010402021FDF76DBB000402402DE9F04131
:103560000546002700F078FA324E306808B9FFF7B8
:10357000D7FE706905424ED1C5B3083568070ED035
:1035800005F00700C0F108000544680707D0502087
:1035900080F31188BFF34F8FBFF36F8FFEE72DB31A
:1035A0007068854237D82348183001460C6801E01E
:1035B00020460C466168A94202D221680029F7D151
:1035C00031688C4227D0076821680160606808373D
:1035D000411B10290FD96019420708D0502080F3F1
:1035E0001188BFF34F8FBFF36F8FFEE713E0416089
:1035F0006560FFF737FF61687068401A7060B268F5
:10360000904200D2B060706901430020C4E900011B
:10361000F068401CF06000F0A5FC780707D050204F
:1036200080F31188BFF34F8FBFF36F8FFEE73846EB
:10363000BDE8F081A000002010B5031F4FF080749A
:103640001C601B1F21F001011960191F044B0B6046
:1036500014390A60091F6FF0020244380A6010BD75
:10366000D13400087CB50A1A1D4C121DD31702EB89
:103670009373C4E9030123F00303411AD51A091D0A
:10368000CA1701EB927222F00302891AC4E90751AA
:103690000026DFED140A9FED140A4FF4FA628D4202
:1036A0000CDC002D1BD001EE105A00961346B8EE2C
:1036B000C11A0121019661EE200A0DE0002D0ED005
:1036C00001EE101A401CE060B8EEC11A00961346D5
:1036D000002161EE200A01960120FFF781FB7CBDED
:1036E000CC0000200000614400803B4513460A46A0
:1036F0000146022000F006B813460A4601460120A2
:10370000AFF300801CB580248DF800407E248DF836
:1037100004400C4C20706170A270E37010230122F1
:1037200069460948FEF798FC102304222146064802
:10373000FEF792FC1023012201A90348FEF78CFC3E
:103740001CBD0000F6000020A004002070B51B4C3A
:103750002078012830D11A481A4D01214278287862
:10376000FFF7C4FF012202212878FFF7BFFF0122E3
:1037700003212878FFF7BAFF134E144D3078012843
:1037800003D129786278FFF7B7FF3078022803D198
:1037900069786278FFF7B0FF3078032803D1A97801
:1037A0006278FFF7A9FF3078042803D1E9786278BE
:1037B000FFF7A2FF0020207070BD0000F400002081
:1037C00000000020510000204C000020F0000020EC
:1037D0000E4C0025206A0228606A01D1401C6062FC
:1037E000012802D1A56200F08FF9206A0128A06AA1
:1037F00001D1401CA062012802D100F063F965628A
:10380000FFF7A4FF0220FFF775FCE3E708000020A4
:10381000D0E9013201699A60D0E901235A604A680F
:10382000824201D182684A60002202610868401E1B
:103830000860086870470000034B036003F1540000
:1038400008608020106070473801002000F10801F6
:103850004FF0FF32C0E90112C16001610021016037
:10386000704700210161704730B50B685A1C02D0C7
:1038700000F1080202E0026904E02246546825686B
:103880009D42FAD953684B6099608A605160086123
:103890000168491C016030BD42684A6093688B60D2
:1038A00093685960916008610168491C0160704724
:1038B000502080F31188BFF34F8FBFF36F8F0A49F9
:1038C0004868401C486001280CD10848006810F086
:1038D000FF0F07D0502080F31188BFF34F8FBFF345
:1038E0006F8FFEE770470000C000002004ED00E08D
:1038F0000849486828B1401E486001D180F311880A
:103900007047502080F31188BFF34F8FBFF36F8F44
:10391000FEE70000C000002070B500282AD0164D38
:10392000A0F1080460686969084207D1502080F35B
:103930001188BFF34F8FBFF36F8FFEE722683AB154
:10394000502080F31188BFF34F8FBFF36F8FFEE7D6
:103950008843606000F080F86068696808446860C7
:103960002046FFF77FFD2869401C2861BDE87040B4
:1039700000F0F8BA70BD0000A00000204FF0E02079
:1039800000210161816105494FF47A720968B1FB38
:10399000F2F1491E4161072101617047600000207A
:1039A00010B5020014D00F48006B38B1502080F3DE
:1039B0001188BFF34F8FBFF36F8FFEE700F04CF815
:1039C00000211046FFF7F2FB00F0CCFA002807D1E7
:1039D00005494FF080500860BFF34F8FBFF36F8FE2
:1039E00010BD00006400002004ED00E010B586B0BA
:1039F0000024039405AA04A903A80494FFF71CFF5C
:103A0000DDE903010094CDE9011000230EA1104867
:103A1000059A00F016FA0F490028C86211D050200C
:103A200080F31188BFF34F8FBFF36F8F4FF0FF30DC
:103A3000886201204861CC6006B0BDE8104000F00B
:103A400059B906B010BD000049444C4500000000C3
:103A50006D330008640000200248016B491C0163BB
:103A600070470000640000201448016B11B101216F
:103A7000C16170470021C1610169B1FA81F1C1F1F1
:103A80001F0101EB81020E4951F822306BB101EBAD
:103A9000820101F108034A6852684A609A4201D1E2
:103AA00052684A60D16801607047502080F31188E5
:103AB000BFF34F8FBFF36F8FFEE70000640000205D
:103AC0004C0600201CB50E48102301224168491CF9
:103AD000416081208DF800007C208DF8040069464B
:103AE0000848FEF7B9FA1023012205490548FEF7F8
:103AF000B3FA1023012201A90248FEF7ADFA1CBD5A
:103B0000FC0000205C0400201CB50F48102301229B
:103B10008168491C816081208DF800007C208DF82F
:103B2000040069460948FEF797FA07491023012265
:103B3000491C0648FEF790FA1023012201A9034808
:103B4000FEF78AFA1CBD0000FC0000205C04002087
:103B500000F006F8FFF704FB0220FFF7CBFAF7E7C7
:103B600030B5224B187801283FD121490124214842
:103B70000A78802A2DD18A787E2A2AD10278C270CA
:103B80004A781D490270012A06D0022A08D0032A69
:103B90000AD0042A0CD00EE00A78521C0A700AE0FF
:103BA0004A78521C4A7006E08A78521C8A7002E0F9
:103BB000CA78521CCA7041780A22491CC9B2B1FBAA
:103BC000F2F502FB15124170012A02D1012900D041
:103BD000C47001784A1E032A05D8084A1170C078BB
:103BE0005070074804700020187030BD500000204D
:103BF000000000204C000020F0000020CE0000203B
:103C0000090000202DE9F041DFF8788002214046CC
:103C1000FDF70AF81C4F00250126A7F1280401280A
:103C200006D1A068401CA060642801DDA5607E70FC
:103C300001214046FCF7F8FF012806D1E068401C4E
:103C4000E060642801DDE560BE7010214046FCF7AD
:103C5000EBFF012806D12069401C2061642801DDAA
:103C60002561FE7020210948FCF7DEFF012806D1FE
:103C70006069401C6061642801DD65613E71BDE8DA
:103C8000F0810000000802403001002000000240E6
:103C900070B5164C00251649207801280ED0022850
:103CA00014D003281AD0042807D1C9780122FFF7BD
:103CB00023FD606A401C6062257070BD0978012296
:103CC000FFF71AFDA069401CA061F5E749780122C1
:103CD000FFF712FDE069401CE061EDE78978012201
:103CE000FFF70AFD206A401C2062E5E7080100207A
:103CF000F00000201CB537480168374A914207D1CF
:103D0000502080F31188BFF34F8FBFF36F8FFEE712
:103D100000683149491E884207D1502080F311883C
:103D2000BFF34F8FBFF36F8FFEE72C4908780190E8
:103D3000FF20087008788DF800009DF800009DF8BD
:103D4000002000F0F000904207D0502080F311884E
:103D5000BFF34F8FBFF36F8FFEE79DF80000204C3D
:103D600000F0500020700720A06005E09DF80020C2
:103D700052008DF80020401E9DF800201206F5D458
:103D8000A060032807D0502080F31188BFF34F8F25
:103D9000BFF36F8FFEE74FF44070A060019808708A
:103DA0000C482030016841F470010160016841F065
:103DB00070410160FFF7E2FD00206060FCF786FAC9
:103DC0000848016841F040410160FCF76BFA0020AF
:103DD0001CBD000000ED00E071C20F4100E400E0F6
:103DE000C000002034EF00E02DE9FF5F8346DDE9ED
:103DF0000E87994616468A469000FFF7AFFB0500EE
:103E00001CD05420FFF7AAFB040014D00020256327
:103E100084F85100CDE90240CDE900874B46324697
:103E200051465846FFF7D2FA2046FFF7F7F901202E
:103E300004B0BDE8F09F2846FFF76EFD4FF0FF305D
:103E4000F6E7F0B585B0DDE90B640A9DA6B1DCB1FB
:103E5000542700972663022684F85160002604AF99
:103E6000CDE90246CDE90057FFF7B0FA2046FFF74B
:103E7000D5F9049805B0F0BD502080F31188BFF348
:103E80004F8FBFF36F8FFEE7502080F31188BFF391
:103E90004F8FBFF36F8FFEE72DE9F0412F4C0026C7
:103EA000206B28B1A069401CA0613046BDE8F081BC
:103EB000E5686D1CE56013D1606B006838B1502077
:103EC00080F31188BFF34F8FBFF36F8FFEE7606BF6
:103ED000A16B6163A063206A401C2062FFF7E8FACF
:103EE000A06ADFF87C80854209D3606B0068A0B1CE
:103EF000606BC068C7687868854211D2A06220688C
:103F0000C06A00EB800158F82100012800D9012681
:103F1000E0690028C9D00126C7E74FF0FF30EDE780
:103F2000381DFFF775FCB86A18B107F11800FFF7E4
:103F30006FFCF96A0120226988401043206101EB7F
:103F4000810108EB8100391DFFF7A6FCF86A2168A2
:103F5000C96A8842C9D30126C7E70000640000206F
:103F60004C0600202DE9F0472C4D00242746286BF5
:103F700038B1FFF79DFC286B401E2863286B40B1C9
:103F800046E0502080F31188BFF34F8FBFF36F8F4F
:103F9000FEE7A968224E0120D1B3A6F1B4098046FC
:103FA0003068E8B1F068C46804F11800FFF730FC2D
:103FB000201DFFF72DFCE06A2A6908FA00F1114381
:103FC000296100EB800109EB8100211DFFF764FCF2
:103FD000E06A2968C96A8842E2D3C5F81C80DFE735
:103FE0000CB1FFF765FAAC6944B14646FFF754FFE0
:103FF00000B1EE61641EF9D10020A861E86938B112
:104000000849012738070860BFF34F8FBFF36F8F50
:10401000FFF76EFC3846BDE8F08700006400002022
:104020000007002004ED00E04FF04070E1EE100AC0
:1040300070470000C44000083D2400080000000054
:1040400000000000800000000000000000000000F0
:10405000E8400008513B000800000000000000009C
:10406000800000000000000000000000E0400008A8
:10407000D1370008000000000000000080000000B0
:104080000000000000000000D04000081D300008C3
:1040900000000000000000008000000000000000A0
:1040A00000000000000610160006101600000000B8
:1040B00000000000010203040607080900000000D8
:1040C0000102030464656661756C745461736B006E
:1040D0006D6F746F725F636F6E74726F6C0000004F
:1040E00073637265656E0000766973696F6E0000B8
:1040F0001041000800000020380100000002000804
:104100002841000838010020884800003C020008CF
:10411000F10345F40142019210036224F40535AA2B
:08412000AAAAAA033B01020058
:04000005080001C529
:00000001FF
